:10000000302600204D980100CD9501009D51000043
:100010005B9801005B9801005B9801005B98010010
:100020000000000000000000000000005B980100DC
:100030005B98010000000000E75000009D400200B6
:1000400059930100C77D0100F77C0100837E010008
:10005000CD7E0100C77D0100F77C0100837E010099
:10006000CD7E01006D8F0100A18F0100D58F0100B1
:1000700009900100000000000000000000000000E6
:100080000000000000000000000000000000000070
:100090000000000000000000000000000000000060
:1000A0000000000000000000000000000000000050
:1000B0000000000000000000000000000000000040
:1000C0000000000000000000000000000000000030
:1000D0000000000000000000000000000000000020
:1000E0000000000000000000000000000000000010
:1000F0000000000000000000000000000000000000
:1001000000000000000000000000000000000000EF
:1001100000000000000000000000000000000000DF
:1001200000000000000000000000000000000000CF
:1001300000000000000000000000000000000000BF
:1001400000000000000000000000000000000000AF
:10015000000000000000000000000000000000009F
:10016000000000000000000000000000000000008F
:10017000000000000000000000000000000000007F
:10018000000000000000000000000000000000006F
:10019000000000000000000000000000000000005F
:1001A000000000000000000000000000000000004F
:1001B000000000000000000000000000000000003F
:1001C000FFFFFFFFFFFFFFFFFFFFFFFFFFFFFFFF3F
:1001D000FFFFFFFFFFFFFFFFFFFFFFFFFFFFFFFF2F
:1001E000FFFFFFFFFFFFFFFFFFFFFFFFFFFFFFFF1F
:1001F000FFFFFFFFFFFFFFFFFFFFFFFFFFFFFFFF0F
:1002000010B5054C237833B9044B13B1044800E012
:1002100000BF0123237010BD300800200000000043
:1002200084C3030008B5034B1BB10349034800E036
:1002300000BF08BD000000003408002084C3030094
:1002400080B500AF0A4802F067FC01214FF48370CB
:1002500012F04EF94FF4FA7004F038F900214FF41F
:10026000837012F045F94FF4FA7004F02FF9ECE7BF
:10027000F4F4020080B582B000AF7860034802F069
:100280004BFC00BF0837BD4680BD00BF08F502002B
:1002900080B582B000AF134812F068F903467B6066
:1002A0007968114802F038FC786800230F4A002171
:1002B00012F0A8F838603B68002B02D00C4802F01E
:1002C0002BFC7B680121184612F0CAF838603B68A5
:1002D000002B02D0074802F01FFC00BF0837BD46C4
:1002E00080BD00BF1CF5020024F50200750200006D
:1002F0003CF5020054F5020080B400AF034B1B68CC
:100300001846BD465DF8047B704700BF4C080020CE
:1003100080B582B000AF1B4B1B68002B02D0194B7D
:100320001B68984704F0C8FE7860174B1B680133C0
:10033000154A136003F03CFF38603B689B6C5A1E03
:100340003B689A643B689B6C002B12D13B685A6CEB
:100350003B689A643B6893F8343043F00803DAB2A0
:100360003B6883F83420786804F0AAFE03F02CFC84
:1003700002E0786804F0A4FE04F010FD00BF083726
:10038000BD4680BD500800204C08002080B485B0D8
:1003900000AF78607B68002B03DA4FF0FF33FB601F
:1003A00027E07B68164A82FB03129211DB17D31AEF
:1003B0004FF47A7202FB03F3FB607A68104B83FB05
:1003C00002139911D317CB1A4FF47A7101FB03F37F
:1003D000D31A4FF47A7202FB03F303F2E733084AAD
:1003E00082FB03129211DB17D31A1A46FB681344DF
:1003F000FB60FB6818461437BD465DF8047B704708
:10040000D34D621080B400AF00231846BD465DF89E
:10041000047B704780B400AF00231846BD465DF8EA
:10042000047B704780B400AF00231846BD465DF8DA
:10043000047B704780B400AF00231846BD465DF8CA
:10044000047B704780B582B000AF094B7B6005E04C
:100450007B681B6898477B6804337B607B68054A30
:100460009342F5D300BF00BF0837BD4680BD00BF33
:10047000B8F40200C4F4020080B582B000AF094BAA
:100480007B6005E07B681B6898477B6804337B6072
:100490007B68054A9342F5D300BF00BF0837BD46CD
:1004A00080BD00BFC4F40200F0F4020080B500AFCC
:1004B00000F036F80023184680BD80B582B000AF4A
:1004C0007860FFF7D9FF17F011F900BF0837BD4674
:1004D00080BDFFFF80B584B002AF142301930A23CF
:1004E00000934FF40063002209490A4803F00EFF0D
:1004F00078607B68002B04D1D5220749074802F0B9
:1005000063FC786803F060FE00BF0837BD4680BD1D
:10051000BB04000084F502009CF502008CF502008B
:1005200080B500AF04F0C8FD23F0C2FD01F092FEDB
:1005300004F074FD03F010FBFFF7CCFF04F088FD1E
:1005400000F00CFB03F024FB0023184680BD80B4B0
:1005500083B000AF78607B687A685A607B685A68BD
:100560007B681A6000BF0C37BD465DF8047B70479E
:1005700080B582B000AF78607B68002B04D1252263
:100580000749084802F020FC7B6800221A607B685B
:1005900004331846FFF7DBFF00BF0837BD4680BDB8
:1005A00080F60200B0F5020080B584B000AFF860BC
:1005B000B9601346FB80FB68002B02D14FF0FF337C
:1005C00020E0B86800F058F80346002B02D04FF046
:1005D000FF3317E0FB68BA680921184603F02EF8CC
:1005E000FB68FA88DA82FB6800229A76FB680022B0
:1005F0001A83FB680022DA63FB6840331846FFF772
:10060000B7FF002318461037BD4680BD80B582B0C5
:1006100000AF78607B68002B04D156221249134842
:1006200002F0D2FB7B68184603F064F90346092BFD
:1006300004D057220C490E4802F0C6FB7B681846CE
:1006400003F03AF90346002B04D158220649094821
:1006500002F0BAFB7B68184603F056F800231846F0
:100660000837BD4680BD00BF90F60200C4F5020009
:10067000D4F5020010F6020080B582B000AF7860B9
:100680000921786803F050F9034618460837BD463B
:1006900080BDFFFF80B584B000AF78600B467B80E3
:1006A0000023FB607B68002B04D1D02237493848F7
:1006B00002F08AFB7B68184603F01CF90346092BFD
:1006C00004D0D1223149334802F07EFB7B68DB8ABB
:1006D00003F01003002B14D17B685B6A002B09D058
:1006E0007B685B6A78689847F860FB68002B01D0EC
:1006F000FB6847E07B68DB8A43F010039AB27B68B3
:10070000DA827B68DB8A03F00803002B08D07B6861
:100710001B8B03F00803002B02D06FF0060331E0BF
:100720007B689B6A002B07D07B689B6A7A8811469E
:1007300078689847F86007E07B8823F0F0031B0592
:100740001B0D9AB27B681A83FB68002B03D0FB68F1
:1007500013F1060F15D17B681B8B43F008039AB287
:100760007B681A837B689B7E0133DAB27B689A765A
:100770007B689B7E002B04D1FF220449064802F0CF
:1007800023FBFB6818461037BD4680BDA8F6020063
:10079000C4F50200D4F502006CF6020080B584B006
:1007A00000AF78600023FB607B68002B05D14FF41D
:1007B00089721E491E4802F007FB7B68184603F049
:1007C00099F80346092B05D040F21312174919482E
:1007D00002F0FAFA7B689B7E002B02D14FF0FF33C8
:1007E0001FE07B689B7E013BDAB27B689A767B6870
:1007F0009B7E002B01D0002313E07B68DB6A002B7B
:1008000004D07B68DB6A78689847F860FB68002B47
:1008100003D0FB6813F1060F02D17B6800221A8314
:10082000FB6818461037BD4680BD00BFB8F6020011
:10083000C4F50200D4F5020090B585B000AFF860B1
:10084000B9607A603B60FB68002B05D14FF4A07261
:100850001849194802F0B8FAFB68184603F04AF83C
:100860000346092B05D040F241121249134802F009
:10087000ABFAFB689B7E002B05D14FF0FF3001F0F7
:1008800081FA002311E0FB681B6B002B08D0FB688A
:100890001C6B3B687A68B968F868A047034604E0B7
:1008A0006FF0050001F06EFA002318461437BD46BC
:1008B00090BD00BFC8F60200C4F50200D4F50200E6
:1008C00090B585B000AFF860B9607A603B60FB68B6
:1008D000002B05D140F26B121849194802F074FA46
:1008E000FB68184603F006F80346092B05D04FF4C1
:1008F000B6721249134802F067FAFB689B7E002B20
:1009000005D14FF0FF3001F03DFA002311E0FB6804
:100910005B6B002B08D0FB685C6B3B687A68B9683E
:10092000F868A047034604E06FF0050001F02AFADA
:10093000002318461437BD4690BD00BFD8F602000C
:10094000C4F50200D4F5020080B584B000AFF860B1
:10095000B9607A60FB68002B05D140F28F12114913
:10096000114802F031FAFB68184602F0C3FF034653
:10097000092B05D04FF4C8720A490C4802F024FA3A
:10098000FB689B6B002B07D0FB689B6B7A68B96890
:10099000F8689847034601E06FF0050318461037E2
:1009A000BD4680BDE8F60200C4F50200D4F50200A1
:1009B00080B582B000AF786039607B68002B05D1CC
:1009C00040F2AB120C490D4802F0FEF97B68184664
:1009D00002F090FF0346092B05D04FF4D67206496A
:1009E000074802F0F1F97B683A68DA61002318469B
:1009F0000837BD4680BD00BFFCF60200C4F502000A
:100A0000D4F5020080B483B000AF786039607B68B1
:100A10001B683A685A607B681A683B681A607B6892
:100A20003A681A603B687A685A6000BF0C37BD4666
:100A30005DF8047B704780B483B000AF78607B685A
:100A40001B687A6852685A607B685B687A681268CB
:100A50001A607B687A685A607B685A687B681A609B
:100A600000BF0C37BD465DF8047B704780B582B08F
:100A700000AF78607B68143319460348FFF7C2FF64
:100A800000BF0837BD4680BD0000002090B583B090
:100A900000AF00237B600D4B3B603B681B683A68EE
:100AA0009A420ED03B681B68143B7B6004F004FB49
:100AB00004467B6814331846FFF7BDFF204604F058
:100AC000FFFA7B6818460C37BD4690BD0000002039
:100AD00080B582B000AFFFF7D9FF78607B68002B4C
:100AE0001BD07B689B6F3B603B68002B02D03B6850
:100AF00078689847786802F0DFFE0346012B03D13F
:100B0000786802F001FEE6E77B689B6A184602F00F
:100B100029F9786802F092FEDDE700BF00BF0837D0
:100B2000BD4680BD80B584B000AF78600023FB6017
:100B30000CE0094AFB6852F82330BB60BB68002B0D
:100B400001D0BB689847FB680133FB60FB68032B4F
:100B5000EFD9FFF7BDFFE9E7D409002080B588B0E1
:100B600004AF0023FB6024E03B1DFA6815491846DA
:100B700001F058FFFB68DB01134A9818FB681B0261
:100B8000124A1344391D202203921F2202924FF46D
:100B900080720192009300230D4A03F0D1FAFB68A2
:100BA000DB01094A1344184603F00EFBFB680133CE
:100BB000FB60FB68002BD7D000BF00BF1037BD46DD
:100BC00080BD00BF18F7020054080020D4080020A0
:100BD000250B000080B483B000AF78607B687A6832
:100BE0005A607B685A687B681A6000BF0C37BD4644
:100BF0005DF8047B704780B483B000AF78603960E3
:100C00007B685B683A681A607B685A683B685A6020
:100C10007B683A685A603B687A681A6000BF0C3794
:100C2000BD465DF8047B704780B483B000AF786048
:100C30007B681B687A689A420CBF01230023DBB2F1
:100C400018460C37BD465DF8047B704780B582B00E
:100C500000AF78607B6814331846FFF7BBFF0023B2
:100C600018460837BD4680BD80B586B000AFF86035
:100C7000B9601346FB71B86803F0B6FCFB79002B32
:100C800002D0012B07D031E0BB6814331946F86855
:100C9000FFF7B1FF31E0FB681B687B6117E07B6900
:100CA000143B3B61BB6893F835203B6993F83530C2
:100CB0009A4209D23B6903F11402BB681433194606
:100CC0001046FFF798FF06E07B691B687B617A6935
:100CD000FB689A42E3D17A69FB689A420CD1BB68FF
:100CE00014331946F868FFF786FF05E0A32205498B
:100CF000054802F069F800E000BF002318461837E5
:100D0000BD4680BD48FC020020F7020080B584B0DB
:100D100000AF78607B681B68143BFB60F86803F0E9
:100D2000C7FC002318461037BD4680BD90B585B07E
:100D300000AF786012E004F0BFF903461C467B6800
:100D40001B68143BFB60FB684FF0FF321A63F868C6
:100D500003F0AEFC2346184604F0B2F97868FFF7BA
:100D600063FF0346002BE6D0002318461437BD4628
:100D700090BDFFFF80B584B000AFF860B9607A60C5
:100D8000FB70FB68002B05D14FF496721749184889
:100D900002F01AF87B68B3F5803F05D340F22D12BC
:100DA0001249144802F010F8FB78002B08D0FB78A9
:100DB000012B05D04FF497720C490F4802F004F84C
:100DC000FB68BA680221184602F038FCFB68184636
:100DD000FFF73CFF7B689AB2FB689A83FB68FA785E
:100DE0005A72002318461037BD4680BD00FC020031
:100DF00024F7020034F7020048F7020080B582B001
:100E000000AF78607B68002B05D14FF4AB721649B8
:100E1000164801F0D9FF7B68184602F06BFD0346C7
:100E2000022B05D040F257120F49114801F0CCFFB8
:100E30007B68184602F040FD0346002B05D14FF4B5
:100E4000AC7209490B4801F0BFFF7B6814331846A8
:100E5000FFF76CFF7B68184602F056FC002318462B
:100E60000837BD4680BD00BF0CFC020024F702001D
:100E700084F70200CCF7020080B586B000AFF860BE
:100E8000B9601346FB71BB68B3F5803F05D340F2F0
:100E900089121F491F4801F097FFFB79002B08D0EA
:100EA000FB79012B05D04FF4C57219491A4801F09E
:100EB0008BFF04F001F9786100F050FF0346002B2E
:100EC00009D01349154801F027FE4FF4C6721049A6
:100ED000134801F079FF786904F0F2F8F96802200C
:100EE00002F040FC38613B69002B01D13B690BE00B
:100EF0003B691846FFF7AAFEBB689AB23B699A8322
:100F00003B69FA795A723B6918461837BD4680BD6D
:100F10001CFC020034F7020048F70200FCF7020054
:100F200020F7020080B584B000AF78607B68002BAA
:100F300005D14FF4DB722049204801F045FF7B6862
:100F4000184602F0D7FC0346022B05D040F2B71238
:100F500019491B4801F038FF7B68184602F0ACFCC9
:100F60000346002B05D04FF4DC721349154801F0FD
:100F70002BFF04F0A1F8F86000F0F0FE0346002B10
:100F800009D00D49104801F0C7FD4FF4DD720A4940
:100F90000E4801F019FFF86804F092F87B681433EA
:100FA0001846FFF7C3FE7B68184602F047FC002393
:100FB00018461037BD4680BD2CFC020024F7020005
:100FC00084F7020024F80200FCF7020020F7020078
:100FD00090B587B000AF786039607B68002B05D191
:100FE00040F2E5125549564801F0EEFE7B6818467E
:100FF00002F080FC0346022B05D04FF4F3724F49F8
:10100000504801F0E1FE504B1B68002B04D04E4BC2
:101010001B687A681046984704F04EF804467B68CF
:101020009B8B002B09D07B689B8B013B9AB27B6822
:101030009A83204604F044F871E03B68002B05D108
:10104000204604F03DF86FF0010372E004F034F83C
:10105000786102F055FF0346002B09D037493B4821
:1010600001F05AFD40F206223449394801F0ACFE45
:1010700004F022F8386103F09BF80346002B09D1F5
:101080002E49344801F048FD40F206222B493048F1
:1010900001F09AFE04F010F8F86000F05FFE0346DD
:1010A000002B09D025492C4801F036FD40F20622DC
:1010B0002249274801F088FEF86804F001F83869F1
:1010C00003F0FEFF786903F0FBFF03F071F8B860EE
:1010D000BB6800221A637B6803F114007B685B7AAB
:1010E0001A46B968FFF7C0FD3B68002B0BDDBB68F3
:1010F0004C333A460021184603F0D4FDBB684C330C
:10110000184603F073FC204603F0DAFF02F05CFDA2
:10111000BB681B6B002B02D0BB681B6B09E00F4B3D
:101120001B68002B04D00D4B1B687A68104698474B
:10113000002318461C37BD4690BD00BF3CFC020092
:1011400024F7020084F70200B40A002060F80200CD
:1011500020F702008CF80200FCF70200B80A002019
:1011600080B582B000AF786000217868FFF730FF6B
:10117000034618460837BD4680BDFFFFB0B582B0B4
:1011800000AF78607B68002B05D140F25F222649D2
:10119000264801F019FE7B68184602F0ABFB0346B7
:1011A000022B05D04FF418721F49214801F00CFEA4
:1011B000204B1B68002B04D01E4B1B687A6810461E
:1011C0009847002503F078FF04467B6814331846DF
:1011D000FFF72AFD0346002B06D17B68143318461F
:1011E000FFF794FD012512E07B689B8B4FF6FF72A1
:1011F000934206D07B689B8B01339AB27B689A83BB
:1012000005E0204603F05CFF6FF0020307E0204694
:1012100003F056FF012D01D102F0D6FC0023184641
:101220000837BD46B0BD00BF5CFC020024F70200D9
:1012300084F70200BC0A002080B586B000AFF860D9
:10124000B9607A60FB68002B05D14FF42872184909
:10125000184801F0B9FDFB68184602F04BFB034645
:10126000022B05D040F2A1221149134801F0ACFD38
:10127000BB68012B16D17B687B6103F01DFF034621
:101280003B61FB6814331846FFF750FD7B699AB247
:10129000FB689A833B69184603F012FF02F094FC46
:1012A000002301E04FF0FF3318461837BD4680BDDC
:1012B0006CFC020024F7020084F7020080B584B0C1
:1012C00000AFF860B9601346FB71FB68002B05D1D5
:1012D00040F2E6221049114801F076FDFB68BA6839
:1012E0000321184602F0AAF9FB681846FFF7AEFC86
:1012F000FB6801229A83FB6800221A62FB68FF22C6
:101300009A77FB680022DA77FB6801225A72002381
:1013100018461037BD4680BD7CFC0200C4F80200B0
:1013200080B582B000AF78607B68002B05D14FF4A8
:1013300044721649164801F047FD7B68184602F0D2
:10134000D9FA0346032B05D040F211320F49114858
:1013500001F03AFD7B68184602F0AEFA0346002B16
:1013600005D140F2123209490B4801F02DFD7B688E
:1013700014331846FFF7DAFC7B68184602F0C4F90C
:10138000002318460837BD4680BD00BF8CFC020014
:10139000C4F80200D8F802001CF9020080B584B03D
:1013A00000AF78600B46FB7003F086FEF86000F03B
:1013B000D5FC0346002B09D01749184801F0ACFBB7
:1013C0004FF44E721449164801F0FEFCF86803F021
:1013D00077FE7968032002F0C5F9B860BB68002B7E
:1013E00001D1BB6813E0BB681846FFF72FFCBB6850
:1013F00001229A83BB6800221A62BB68FF229A7797
:10140000BB680022DA77BB6801225A72BB681846B3
:101410001037BD4680BD00BF9CFC0200FCF70200F7
:1014200020F7020080B584B000AF78607B68002BA5
:1014300005D14FF459722049204801F0C5FC7B6862
:10144000184602F057FA0346032B05D040F26532E6
:1014500019491B4801F0B8FC7B68184602F02CFAC9
:101460000346002B05D040F266321349154801F0BF
:10147000ABFC03F021FEF86000F070FC0346002B8B
:1014800009D00D49104801F047FB4FF45A720A4940
:101490000E4801F099FCF86803F012FE7B681433E3
:1014A0001846FFF743FC7B68184602F0C7F9002393
:1014B00018461037BD4680BDACFC0200C4F80200DF
:1014C000D8F8020050F90200FCF7020020F70200F1
:1014D00090B587B000AF7860396003F0EDFD7861BA
:1014E00002F00EFD0346002B09D07749774801F042
:1014F00013FB4FF465727449754801F065FC03F005
:10150000DBFD386102F054FE0346002B09D16E4921
:10151000704801F001FB4FF465726B496C4801F0B3
:1015200053FC03F0C9FDF86000F018FC0346002BE3
:1015300009D06549684801F0EFFA4FF465726249D5
:10154000634801F041FCF86803F0BAFD386903F024
:10155000B7FD786903F0B4FD7B68002B05D140F23C
:10156000973259495D4801F02FFC7B68184602F01C
:10157000C1F90346032B05D04FF46672524958480F
:1015800001F022FC02F014FEB86003F095FD044661
:10159000544B1B68002B04D0524B1B687A681046D2
:1015A0009847BB6800221A637B681B6ABA689A4234
:1015B00010D17B68DB7FFF2B06D07B68DB7F01339C
:1015C000DAB27B68DA776DE0204603F079FD6FF0E0
:1015D000020374E07B689B8B002B1ED07B689B8B87
:1015E000013B9AB27B689A837B68BA681A62BB68CF
:1015F00093F835207B689A777B68DB7FFF2B06D0DA
:101600007B68DB7F0133DAB27B68DA774AE0204619
:1016100003F056FD6FF0020351E03B68002B09D147
:10162000BB686FF001021A63204603F049FD6FF0BA
:10163000010344E0BB6893F835207B681B6A93F88C
:1016400035309A4207D27B68186ABB6835331A4630
:10165000022102F04BFF7B6803F114007B685B7A88
:101660001A46B968FFF700FB3B68002B0BDDBB682F
:101670004C333A460021184603F014FBBB684C3348
:10168000184603F0B3F9204603F01AFD02F09CFA65
:10169000BB681B6B002B02D0BB681B6B0FE003F019
:1016A0000BFD0446204603F00BFD0F4B1B68002B7F
:1016B00004D00D4B1B687A681046984700231846E3
:1016C0001C37BD4690BD00BFBCFC020060F80200A4
:1016D00020F702008CF80200FCF70200C4F80200B8
:1016E000D8F80200B40A0020B80A002090B587B0EC
:1016F00000AF78607B68002B05D140F2444263491B
:10170000634801F061FB7B68184602F0F3F803467A
:10171000032B05D040F245425C495E4801F054FB82
:1017200000237B6103F0C8FC386102F041FD0346F1
:10173000002B09D15549584801F0EEF940F24A42D0
:101740005249564801F040FB03F0B6FCF86000F047
:1017500005FB0346002B09D04C49514801F0DCF948
:1017600040F24A4249494D4801F02EFBF86803F027
:10177000A7FC386903F0A4FC02F01AFDB86003F07E
:101780009BFC0446474B1B68002B04D0454B1B6851
:101790007A68104698477B681B6ABA689A4209D0F3
:1017A000BB684FF0FF321A63204603F089FC4FF00C
:1017B000FF3367E07B68DB7F013BDAB27B68DA7777
:1017C0007B68DB7F002B54D17B689A7F7B681B6A28
:1017D00093F835309A4207D07B68186A7B681E33CD
:1017E0001A46022102F082FE7B6814331846FFF786
:1017F0001BFA0346002B23D17B685B69143BBB605B
:101800007B68BA681A62BB6893F835207B689A7760
:101810007B68DB7FFF2B0DD07B68DB7F0133DAB287
:101820007B68DA777B6814331846FFF76FFA012379
:101830007B611EE0204603F043FC6FF0020321E0D1
:101840007B689B8B4FF6FF7293420CD07B689B8B1F
:1018500001339AB27B689A837B6800221A627B68A4
:10186000FF229A7705E0204603F02AFC6FF002037E
:1018700008E0204603F024FC7B69012B01D102F033
:10188000A3F9002318461C37BD4690BDCCFC0200CE
:10189000C4F80200D8F802008CF8020020F7020019
:1018A000FCF70200BC0A002080B584B000AF78606D
:1018B0000B46FB70FB78002B08D0FB78012B05D082
:1018C00040F24C521849194801F07EFA03F0F4FB3B
:1018D000F86000F043FA0346002B09D0124914487F
:1018E00001F01AF940F24E520F49124801F06CFA19
:1018F000F86803F0E5FB7968042001F033FFB86075
:10190000BB68002B01D1BB680AE0BB68FA785A7249
:10191000BB681846FFF79AF9BB680022DA61BB681A
:1019200018461037BD4680BDE0FC020048F70200B3
:10193000FCF7020020F70200B0B586B000AF786077
:1019400039607B68002B05D140F2A4524C494D48C8
:1019500001F03AFA7B68184601F0CCFF0346042BED
:1019600005D040F2A5524649474801F02DFA3B68A0
:10197000002B02D14FF0FF337DE000233B6103F0E9
:101980009BFB03461D467B68DA693B681A437B680C
:10199000DA613E4B1B68002B04D03C4B1B687A6815
:1019A000104698477B6814331846FFF73DF9034605
:1019B000002B56D17B685B697B614DE07B69143BF2
:1019C000FB604FF0FF34FB6893F8403003F00103F5
:1019D000002B0AD0FB68DA6B7B68DB691A40FB6876
:1019E000DB6B9A421FD100241DE0FB6893F8403066
:1019F00003F00203002B0FD0FB68DA6B7B68DB6916
:101A00001340002B0FD0FB68DA6B7B68DB691A4050
:101A1000FB68DA63002406E02B46184603F050FB0F
:101A20006FF0090327E07B691B687B61002C13D1F1
:101A3000FB6893F8403003F00403002B07D07B6869
:101A4000DA69FB68DB6BDB431A407B68DA61F868B4
:101A500002F02EFE01233B617B6814337A699A42BF
:101A6000ACD12B46184603F02BFB3B69012B01D16F
:101A700002F0AAF8002318461837BD46B0BD00BFD3
:101A8000F0FC020090F90200A4F90200BC0A002058
:101A9000B0B588B000AFF860B9603B601346FB7129
:101AA000FB68002B05D140F223628349834801F093
:101AB0008BF9FB68184601F01DFF0346042B05D087
:101AC00040F224627C497E4801F07EF903F0F4FA8A
:101AD000F86102F015FA0346002B09D076497948DF
:101AE00001F01AF840F227627349774801F06CF967
:101AF00003F0E2FAB86102F05BFB0346002B09D168
:101B00006D49724801F008F840F227626A496E4850
:101B100001F05AF903F0D0FA786100F01FF903469A
:101B2000002B09D064496A4800F0F6FF40F22762B2
:101B30006149654801F048F9786903F0C1FAB8696C
:101B400003F0BEFAF86903F0BBFABB68002B02D1C0
:101B50004FF0FF33ABE04FF0FF3402F029FB386168
:101B60003B6900221A635B4B1B68002B04D0594B66
:101B70001B68FA681046984703F09EFA03461D4614
:101B8000FB7903F00103002B08D0FB68DA69BB681E
:101B90001340BA689A4214D1002412E0FB7903F092
:101BA0000203002B07D0FB68DA69BB681340002BE7
:101BB00007D0002405E040F246623F49424801F068
:101BC00003F9002C1FD13B6B002B05D0FB68DA69B1
:101BD000BB681A403B6B1A60FB68DA69BB681A4045
:101BE0003B69DA633B69FA7983F84020FB7903F0BB
:101BF0000403002B4CD0FB68DA69BB68DB431A4056
:101C0000FB68DA6144E03B68002B0AD13B696FF066
:101C100001021A632B46184603F052FA6FF00103D3
:101C200045E03B69BA68DA633B69FA7983F840209A
:101C3000FB6803F11400FB685B7A1A463969FFF709
:101C400013F83B68002B0BDD3B694C333A4600210F
:101C5000184603F027F83B694C33184602F0C6FEDD
:101C60002B46184603F02CFA01F0AEFF3B691B6BC4
:101C7000002B02D03B691B6B19E003F01DFA0346F1
:101C80001D463B6B002B03D03B69DA6B3B6B1A6044
:101C90002B46184603F014FA0F4B1B68002B04D098
:101CA0000D4B1B68FA68104698473B691B6B18463A
:101CB0002037BD46B0BD00BF00FD020090F9020014
:101CC000A4F9020060F8020020F702008CF802007C
:101CD000FCF70200B40A0020B80A002080B582B0E8
:101CE00000AF03F0E9F978600A4B1B78DBB20133EF
:101CF000DAB2084B1A70084B1B68002B02D0064B57
:101D00001B689847786803F0DBF900BF0837BD46C9
:101D100080BD00BFEC090020E409002080B582B03E
:101D200000AF03F0C9F978600A4B1B68002B02D0A2
:101D3000084B1B689847084B1B78DBB2013BDAB2B3
:101D4000054B1A70786803F0BBF900BF0837BD4631
:101D500080BD00BFE8090020EC09002080B582B0FA
:101D600000AF03F0A9F97860054B1B78FB70786829
:101D700003F0A6F9FB7818460837BD4680BD00BFC2
:101D8000EC09002080B584B000AF7860FFF7E6FF73
:101D90000346002B03D00A4A7B6813600CE002F074
:101DA00007FAF860FB68002B03D1054A7B681360D3
:101DB00002E0FB687A681A631037BD4680BD00BF39
:101DC000F009002080B582B000AFFFF7C7FF0346DF
:101DD000002B01D0074B09E002F0EAF978607B683C
:101DE000002B02D07B68303300E0024B18460837E6
:101DF000BD4680BDF009002080B489B000AFF86016
:101E0000B9607A60FB68FB61BB68DBB27B617B68B1
:101E1000032B40D9FB6803F00303002B3BD1FB6885
:101E2000BB617B691B027A6913433B613B691B04FD
:101E30003A6913433B6116E0BB691A1DBA613A69FE
:101E40001A60BB691A1DBA613A691A60BB691A1D2A
:101E5000BA613A691A60BB691A1DBA613A691A60B7
:101E60007B68103B7B607B680F2BE5D807E0BB6984
:101E70001A1DBA613A691A607B68043B7B607B6813
:101E8000032BF4D8BB69FB6105E0FB695A1CFA61BE
:101E90007A69D2B21A707B685A1E7A60002BF4D12C
:101EA000FB6818462437BD465DF8047B704780B454
:101EB0008BB000AFF860B9607A60FB687B62BB688A
:101EC0003B627B687B617B690F2B4DD93A6A7B6AE9
:101ED000134303F00303002B46D17B6AFB613B6A8B
:101EE000BB6122E0BA69131DBB61FB69191DF96171
:101EF00012681A60BA69131DBB61FB69191DF9618B
:101F000012681A60BA69131DBB61FB69191DF9617A
:101F100012681A60BA69131DBB61FB69191DF9616A
:101F200012681A607B69103B7B617B690F2BD9D8E3
:101F30000AE0BA69131DBB61FB69191DF9611268DA
:101F40001A607B69043B7B617B69032BF1D8FB69D9
:101F50007B62BB693B6207E03A6A531C3B627B6A67
:101F6000591C796212781A707B695A1E7A61002BAB
:101F7000F2D1FB6818462C37BD465DF8047B7047EC
:101F800080B487B000AFF860B9607A60FB687B61AD
:101F9000BB683B613A697B699A4226D23A697B68A1
:101FA00013447A699A4220D27A697B6813447B6130
:101FB0003A697B6813443B6109E03B69013B3B6143
:101FC0007B69013B7B613B691A787B691A707B688E
:101FD0005A1E7A60002BF0D10CE03A69531C3B6129
:101FE0007B69591C796112781A707B685A1E7A6075
:101FF000002BF2D1FB6818461C37BD465DF8047B08
:10200000704780B489B000AFF860B9607A6000238F
:102010007B61FB68FB61BB68BB6112E0FB691B78FD
:102020001A46BB691B78D31A7B617B69002B0CD1E4
:10203000FB690133FB61BB690133BB617B68013B19
:102040007B607B68002BE9D100E000BF7B6918460C
:102050002437BD465DF8047B704780B584B000AF7F
:1020600078603960386800F0C0F80346BB60BB6830
:10207000002B01D17B681BE0786800F0B6F80346BE
:10208000FB6010E0FB68013BFB60BB681A463968E7
:102090007868FFF7B6FF0346002B01D17B6807E0A5
:1020A0007B6801337B60FA68BB689A42EADA0023F6
:1020B00018461037BD4680BD80B487B000AFF860C9
:1020C000B9607A607B68002B21D0FB687B61BB68BC
:1020D0003B613A69531C3B617B69591C79611278F9
:1020E0001A701B78002B0CD104E07B695A1C7A61B2
:1020F00000221A707B68013B7B607B68002BF4D167
:1021000005E07B68013B7B607B68002BE1D1FB68CD
:1021100018461C37BD465DF8047B704780B485B017
:1021200000AF786039607B68FB6009E03B681A7833
:102130007B681A707B6801337B603B6801333B60CE
:102140003B681B78002BF1D17B6800221A70FB687A
:1021500018461437BD465DF8047B704790B484B0D0
:1021600000AFF860B9607A60002413E0FB681A7869
:10217000BB68591CB9601B78D31ADBB25CB2002C67
:102180000BD1FB685A1CFA601B78002B05D07B68CA
:10219000013B7B607B68002BE8D123461846103753
:1021A000BD4690BC704780B483B000AF78603960A2
:1021B00005E07B6801337B603B6801333B607B68F3
:1021C0001B78002B05D07B681A783B681B789A42F5
:1021D000EFD07B681B781A463B681B78D31A1846E9
:1021E0000C37BD465DF8047B704780B485B000AF06
:1021F00078607B68FB6002E0FB680133FB60FB6892
:102200001B78002BF8D1FA687B68D31A184614376C
:10221000BD465DF8047B704780B584B000AF786040
:102220007868FFF7E2FF03460133FB60F86800F0CF
:102230003DFDB860BB68002B01D1002305E0FA68C2
:102240007968B868FFF733FEBB6818461037BD469B
:1022500080BDFFFF80B582B002AF0B4800F05CFC90
:102260000A4800F059FC0A4B01930A4B00930023E3
:1022700001220421084800F04FFC084800F04CFC03
:1022800000BFBD4680BD00BF10FD02001CFD020066
:1022900064FD020070FD020040FD02007CFD0200B2
:1022A00080B485B000AF786039603B680A2B17D1E5
:1022B0007B681B681946134BA3FB0123DA081346FE
:1022C0009B0013445B00CA1AFA607B681B681A46BD
:1022D0000C4BA3FB0223DB081A467B681A600AE05A
:1022E0007B681B6803F00F03FB607B681B681B099E
:1022F0001A467B681A60FB6818461437BD465DF8BD
:10230000047B7047CDCCCCCC90B482B000AF786069
:1023100000240DE023469B0023445B0018467B68A5
:102320001B68591C7A6811601B780344A3F13004C0
:102330007B681B681B78303B092BEBD9234618467A
:102340000837BD4690BC7047B0B58CB000AFF860A0
:10235000B9607A603B607B6CBB623C6CBB6C03F029
:102360004003002B01D06D4B00E06D4B7B62BB6CDA
:1023700003F01003002B03D0BB6C23F00103BB64FC
:10238000BB6C03F00103002B01D0302300E02023BD
:1023900087F82330002387F82F30BB6C03F002034B
:1023A000002B1AD07B68002B06DA2D2387F82F30FC
:1023B0007B685B427B6010E0BB6C03F00403002B86
:1023C00003D02B2387F82F3007E0BB6C03F0080302
:1023D000002B02D0202387F82F3000257B68002BAC
:1023E00019D12B465D1C07F130021344302203F84B
:1023F000202C13E03B1D39681846FFF751FF0346B8
:102400001A467B6A1A442B465D1C127807F130018C
:102410000B4403F8202C7B68002BEBD17B6C9D4296
:1024200000DD7D647B6CE41ABB6C03F01103002BB0
:1024300015D197F82F30002B0DD0002C0BDD013C6F
:1024400009E0FA68BB689A4202D2FB6820221A703F
:10245000FB680133FB6023465C1E002BF1DC97F820
:102460002F30002B0BD0FA68BB689A4203D2FB686E
:1024700097F82F201A70013CFB680133FB60BB6C9E
:1024800003F01003002B1AD10AE0FA68BB689A42E5
:1024900003D2FB6897F823201A70FB680133FB60B6
:1024A00023465C1E002BF0DC09E0FA68BB689A4208
:1024B00002D2FB6830221A70FB680133FB607B6C30
:1024C0005A1E7A649D42F0DB0DE0FA68BB689A42BE
:1024D00006D207F130032B4413F8202CFB681A7046
:1024E000FB680133FB602B465D1E002B0DDDBB6AD4
:1024F000002BEAD109E0FA68BB689A4202D2FB6875
:1025000020221A70FB680133FB6023465C1E002BFF
:10251000F1DCFB6818463037BD46B0BD18FE02003E
:102520002CFE020080B592B004AFF860B9607A600A
:102530003B60FB68BB62FA68BB6813447B627A6AE3
:10254000FB689A4280F026824FF0FF337B627A6A02
:10255000FB68D31ABB601DE27B681B78252B0BD070
:10256000BA6A7B6A9A4203D27B681A78BB6A1A708D
:10257000BB6A0133BB620AE20023BB777B6801338D
:102580007B607B681B782D2B04D1BB7F43F010034D
:10259000BB77F3E77B681B782B2B04D1BB7F43F021
:1025A0000403BB77EAE77B681B78202B04D1BB7F51
:1025B00043F00803BB77E1E77B681B78232B04D14A
:1025C000BB7F43F02003BB77D8E77B681B78302BB9
:1025D00004D1BB7F43F00103BB77CFE700BF4FF0CF
:1025E000FF33BB617B681B78303B092B05D83B1D53
:1025F0001846FFF789FEB86115E07B681B782A2B27
:1026000011D17B6801337B603B681A1D3A601B68FF
:10261000BB61BB69002B06DABB695B42BB61BB7F58
:1026200043F01003BB774FF0FF337B617B681B786F
:102630002E2B1ED17B6801337B607B681B78303B7F
:10264000092B05D83B1D1846FFF75EFE78610BE0AD
:102650007B681B782A2B07D17B6801337B603B6842
:102660001A1D3A601B687B617B69002B01DA00232D
:102670007B6100237B777B681B78682B03D07B68AA
:102680001B786C2B05D17B681B787B777B680133CB
:102690007B600A23FB777B681B78252B00F0088181
:1026A000252BC0F21F81782B00F31C81582BC0F220
:1026B0001981583B202B00F2158101A252F823F01A
:1026C000CD280000E5280000E5280000E5280000EE
:1026D000E5280000E5280000E5280000E5280000C6
:1026E000E5280000E5280000E52800004527000057
:1026F000DB280000E5280000E5280000E5280000B0
:10270000E5280000DB280000E5280000E52800009F
:10271000E5280000E5280000E5280000C7280000A3
:1027200079280000E5280000E5280000B327000014
:10273000E528000021290000E5280000E528000028
:10274000D5280000BB7F03F01003002B10D109E057
:10275000BA6A7B6A9A4202D2BB6A20221A70BB6AAA
:102760000133BB62BB69013BBB61BB69002BEFDC82
:102770003B681A1D3A601B68FB74BA6A7B6A9A420E
:1027800002D2BB6AFA7C1A70BB6A0133BB6209E0F1
:10279000BA6A7B6A9A4202D2BB6A20221A70BB6A6A
:1027A0000133BB62BB69013BBB61BB69002BEFDC42
:1027B000EDE03B681A1D3A601B683B623B6A002BE8
:1027C00001D1824B3B620023FB6202E0FB6A0133D2
:1027D000FB62FA6ABB699A4205D0FB6A3A6A134403
:1027E0001B78002BF2D17B69002B05DDFA6A7B692F
:1027F0009A4201DD7B69FB62BB7F03F01003002B73
:1028000010D109E0BA6A7B6A9A4202D2BB6A2022DE
:102810001A70BB6A0133BB62BB695A1EBA61FA6A9D
:102820009A42EFDB00233B6310E0BA6A7B6A9A426C
:1028300003D23B6A1A78BB6A1A70BB6A0133BB6267
:102840003B6A01333B623B6B01333B633A6BFB6A90
:102850009A42EADB09E0BA6A7B6A9A4202D2BB6A10
:1028600020221A70BB6A0133BB62BB695A1EBA616F
:10287000FA6A9A42EFDB8AE0BB69B3F1FF3F05D108
:102880000823BB61BB7F43F00103BB773B681A1D84
:102890003A601B681A46BB7F02937B690193BB6950
:1028A00000931023796AB86AFFF74EFDB8626EE0B4
:1028B000BA6A7B6A9A4202D2BB6A25221A70BB6A44
:1028C0000133BB6263E00823FB772AE0BB7F43F060
:1028D0004003BB771023FB7723E0BB7F43F0020369
:1028E000BB771DE0BA6A7B6A9A4202D2BB6A252294
:1028F0001A70BB6A0133BB627B681B78002B0BD05C
:10290000BA6A7B6A9A4203D27B681A78BB6A1A70E9
:10291000BB6A0133BB623AE07B68013B7B6036E017
:1029200000BF7B7F6C2B09D13B681A1D3A601B6886
:102930007B63BB7F03F00203002B1AE07B7F682BD5
:102940000ED13B681A1D3A601B689BB27B63BB7F4C
:1029500003F00203002B0CD07B6B1BB27B6308E0FF
:102960003B681A1D3A601B687B63BB7F03F0020360
:10297000002B7A6BF97FBB7F02937B690193BB6964
:1029800000930B46796AB86AFFF7DEFCB8627B6891
:1029900001337B607B681B78002B7FF4DDADBB6867
:1029A000002B0BD0BA6A7B6A9A4203D2BB6A002220
:1029B0001A7003E07B6A013B00221A70BA6AFB6856
:1029C000D31A18463837BD4680BD00BFA8FD0200A7
:1029D0000CB480B584B000AF7860396007F11C0397
:1029E000BB60BB68BA6939687868FFF79BFDF8601F
:1029F000FB6818461037BD46BDE8804002B07047FE
:102A000080B584B000AFF860B9607A607B68BA685E
:102A10004FF0FF31F868FFF785FD03461846103781
:102A2000BD4680BD0EB480B585B000AF786007F1BB
:102A30002003BB60BA68F9697868FFF7E1FFF860C6
:102A4000FB6818461437BD46BDE8804003B07047A8
:102A500080B400AF034B1B681846BD465DF8047B8D
:102A6000704700BFF409002080B584B000AF7860E3
:102A7000124B1B68FB607868FDF7FEFDB860BA6812
:102A8000FB689A4201D1002313E0BB68002B0FD0F2
:102A90000A4B1B68002B04D0084B1B681846FDF737
:102AA0007DFE4321B868FDF7F5FD044ABB6813605D
:102AB000FB6818461037BD4680BD00BFF4090020F2
:102AC00080B483B000AF786000BF0C37BD465DF8BE
:102AD000047B704790B583B000AF78607B68002BB3
:102AE00013D00C4B1B68002B03D17868FFF7E8FF6D
:102AF0000CE0084B1C687868FFF777FB03467A68A0
:102B000000212046FDF7DCFE00E000BF0C37BD468B
:102B100090BD00BFF40900200FB480B582B000AFB3
:102B200007F114033B603B683A697F211048FFF7C7
:102B3000F9FC03467B607B687F2B01D97F237B6098
:102B40000C4B1B68002B03D10948FFF7B9FF06E0C7
:102B5000084B18687B68064A0021FDF7B1FE7B68C8
:102B600018460837BD46BDE8804004B0704700BF36
:102B70002C0A0020F409002080B500AF012203498F
:102B80000348FEF79BFB00BF80BD00BFB0FD020005
:102B9000000A002080B500AF01F00AFB0346002BBD
:102BA00006D04FF0FF310448FEF792FC034600E0E8
:102BB0000023184680BD00BF000A002080B582B007
:102BC00000AF78607B68002B05D04FF4AC620849F9
:102BD000084800F0F9F801F0EBFA0346002B02D0A8
:102BE0000548FEF783FD00BF0837BD4680BD00BF26
:102BF00054FE0200B8FD0200000A002080B485B037
:102C000000AFF860B9607A60FB68002B04D00D4B10
:102C10001B68DA69FB681A60BB68002B04D0094B9B
:102C20001B681A6ABB681A607B68002B04D0054BCE
:102C30001B685A6A7B681A6000BF1437BD465DF88E
:102C4000047B7047240A002080B584B000AF786010
:102C500039607B68033323F00303FB603B6823F098
:102C60000303BB60BA68FB689A4205D840F2B652CB
:102C70000A490B4800F0A8F8BA68FB68D31A1A464C
:102C80007968084800F042F90346074A1360FFF7E5
:102C900073FF00BF1037BD4680BD00BF40FE02007D
:102CA000C8FD0200B0FD0200240A002080B584B0F7
:102CB00000AF7860FFF76EFFF8600C4B1B68796817
:102CC000184600F0A5F9B860F868FFF777FF084BE1
:102CD0001B68002B04D0064B1B687968B8689847BE
:102CE000BB6818461037BD4680BD00BF240A0020CF
:102CF000F809002080B584B000AF78603960FFF734
:102D000049FFF860074B1B683A687968184600F07D
:102D1000B3FAB860F868FFF751FFBB681846103780
:102D2000BD4680BD240A002080B584B000AF786025
:102D300039607B683A6802FB03F31846FFF7B6FF79
:102D4000F860FB68002B08D07B683A6802FB03F34D
:102D50001A460021F868FFF74FF8FB68184610374D
:102D6000BD4680BD80B584B000AF78600A4B1B685B
:102D7000002B03D0084B1B6878689847FFF70AFFC1
:102D8000F860786800F062FBF868FFF717FF00BF93
:102D90001037BD4680BD00BFFC09002080B586B05D
:102DA00000AFF860B9607A60FFF7F4FE78617A6886
:102DB000B968F868FFF722FF7869FFF7FFFE00BFE8
:102DC0001837BD4680BDFFFF80B586B000AFF86004
:102DD000B9607A600023FB750C4B1B68002B0BD18C
:102DE0007B68BA68F9680A48FFF796FE00BFFB7D6A
:102DF000DBB2002BFBD005E0044B1B687A68B96896
:102E0000F868984700BF1837BD4680BD280A0020E3
:102E1000E0FD020080B584B000AF786039607B6867
:102E20009B6A3A689A4204D2822235493548FFF7B4
:102E3000CBFF7B68DB6A3A689A4204D3832230492D
:102E40003148FFF7C1FF7B689A6A3B685B681344AF
:102E5000FB603A68FB689A4224D0FB681B6803F069
:102E60000103002B1ED17B68DB6AFA689A4219D0F5
:102E70007B681B6BFA689A4202D17B683A681A63D6
:102E8000FB6800221A60FB685A683B685A607B68DE
:102E90009B6A3A68D11A7B689A6AFB685B6813443C
:102EA0000A469A607B689A6A3B689B681344BB60D9
:102EB000BA683B689A421FD0BB681B6803F00103E5
:102EC000002B19D17B681B6B3A689A4202D17B6850
:102ED000BA681A633B6800221A603B685A68BB688C
:102EE0005A607B689B6ABA68D11A7B689A6A3B68A9
:102EF0005B6813440A469A6000BF1037BD4680BD28
:102F00008002030064FE020088FE020080B58AB0E1
:102F100000AFF860B9607A60BB68033323F0030345
:102F20007B627B6A38333B623B6A033323F00303E3
:102F3000FB61BA687B68134423F00303BB61BB6980
:102F4000182B53D9BB69183B3A6A9A424ED8BA69D2
:102F5000FB69D31A183B7B6138220021786AFEF79F
:102F60004BFF7B6AFA680C21184600F067FB7B6A0E
:102F7000254A5A617B6AFA699A617B6A7A69DA61E1
:102F80007B6A7A695A63FA697B6A9A627B6A9B6A8E
:102F90003B617B6A23F001023B691A607B6A5B6BD1
:102FA00003F10C023B695A603B6900229A607B6A1C
:102FB0009A6A3B695B681A447B6ADA627A6A7B6A5E
:102FC000DB6A42F001021A607B6A5A6B7B6ADB6A39
:102FD0000C325A607B6A5A6B7B6ADB6A0C329A60ED
:102FE0007B6A9A6A7B6A1A637B6A08E0B968BA6886
:102FF0007B6813441A460548FFF78EFD00231846E8
:103000002837BD4680BD00BFB8FE0200C0FE0200EA
:1030100080B588B000AF786039603B68002B01D183
:10302000002315E17B68002B05D14FF490728A498B
:103030008A48FFF7C9FE7B68184600F05BFC034630
:103040000C2B05D040F2211283498548FFF7BCFEC6
:103050007B68184600F030FC0346002B05D14FF486
:1030600091727D497F48FFF7AFFE7B68BB613B688B
:10307000033323F003033B60BB695B6B3A689A42FE
:1030800001D90023E4E03B680B2B01D80C233B6003
:10309000BB691A6BBB699B6AD31AFB61CFE0BB6942
:1030A0009A6AFB6913447B617B691B6803F0010327
:1030B000002B40F0BE807B695A68FB69D31A0C3B39
:1030C0003A689A4200F2B5807B695A68FB69D31A64
:1030D000A3F10C023B6818339A4239D3FA693B6872
:1030E00013440C333B61BB699A6A3B691344FB6030
:1030F000BB6923F00102FB681A607B695A68FB68B0
:103100005A60FB68FA699A607B693A695A60FB68A1
:103110005A68BB695B6B0C339A4206D0BB699A6AEA
:10312000FB685B6813443A699A60BB691A6A3B683A
:10313000134403F10C02BB691A62BB695A6ABB698A
:103140001B6A9A421AD2BB691A6ABB695A6215E0B5
:10315000BB691A6A7B695B68B969896A7869411ACF
:103160005B1A1A44BB691A62BB695A6ABB691B6A5B
:103170009A4203D2BB691A6ABB695A62BB6943F0BF
:1031800001027B691A60BB691B6B7A699A4228D17C
:1031900007E0BB699A6ABB691B6B5B681A44BB6931
:1031A0001A63BB691B6B1B6803F00103002B05D07E
:1031B000BB691A6BBB69DB6A9A42EAD1BB691A6BBD
:1031C000BB69DB6A9A420CD0BB691B6B1B6803F0BE
:1031D0000103002B05D040F283121F492248FFF75C
:1031E000F3FD7A693B6813440C33BA69D26A93429F
:1031F00005D940F2851218491C48FFF7E5FD7B69A7
:103200000C3303F00303002B05D04FF4C3721249B3
:103210001748FFF7D9FD7B6903F00303002B05D0A6
:1032200040F287120C491348FFF7CEFD7B690C333F
:103230000EE0BB699A6AFB6913445B68FB61BB697A
:103240005A6B3B68D31AFA699A427FF628AF00237B
:1032500018462037BD4680BD8C020300FCFE0200EC
:103260000CFF020048FF020070FF0200C0FF0200D6
:10327000100003005C00030080B58CB000AFF86064
:10328000B9607A60FB68002B05D14FF4D5726849AC
:103290006848FFF799FDFB68184600F02BFB0346D2
:1032A0000C2B05D040F2AB1261496348FFF78CFD4F
:1032B000FB68184600F000FB0346002B05D14FF4D5
:1032C000D6725B495D48FFF77FFDFB68FB627B6858
:1032D000033323F003037B60FB6A5B6B7A689A42DB
:1032E00001D900239FE07B68002B04D1B86800F06F
:1032F000ADF8002397E0BB68002B06D1FB6A796824
:103300001846FFF785FE03468DE0BB6803F0030314
:10331000002B05D040F2C11245494948FFF754FD42
:10332000FB6A9B6ABA689A4205D24FF4E17240493F
:103330004448FFF749FDFB6ADB6ABA689A4205D345
:1033400040F2C3123A494048FFF73EFDBB680C3BD0
:10335000BB62FB6A9B6ABA6AD31A7B62BB6A5A6811
:103360007B6AD31A0C3B3B623A6A7B689A4201D172
:10337000BB6858E07B6818333A6A9A423CD9FB6ACA
:103380001A6A79683B6ACB1A1A44FB6A1A627A6A2B
:103390007B6813440C33BB61FB6A9A6ABB691344B4
:1033A0007B61FB6A23F001027B691A60BB6A5A6881
:1033B0007B695A607B697A6A9A60BB6ABA695A60AB
:1033C0007B695A68FB6A5B6B0C339A4206D0FB6AD6
:1033D0009A6A7B695B681344BA699A60FB6A1B6BE3
:1033E0007A699A4202D2FB6A7A691A637969F86A41
:1033F000FFF710FDBB6816E0FB6A79681846FFF717
:1034000007FEF861FB69002B0CD07A683B6A934297
:1034100028BF13461A46B968F869FEF748FDB86830
:1034200000F014F8FB6918463037BD4680BD00BF78
:103430009C020300FCFE02000CFF020048FF020099
:103440008C000300BC000300F400030080B584B0CE
:1034500000AF78607B68002B00F083807B6803F00E
:103460000303002B05D04FF4027240494048FFF798
:10347000ABFC7B680C3BFB60FB681B6823F0010323
:10348000BB60BB68002B05D14FF405723749394842
:10349000FFF79AFCFB681B6803F00103002B05D1C2
:1034A00040F2152231493448FFF78EFCBB681846BC
:1034B00000F020FA03460C2B05D040F216222B49CF
:1034C0002E48FFF781FCBB68184600F0F5F903466B
:1034D000002B05D140F2172224492948FFF774FC3C
:1034E000BB689B6A7A689A4204D3BB68DB6A7A68D5
:1034F0009A4205D34FF406721C492248FFF764FC38
:10350000BB689A6AFB685B6813441B6823F001037D
:103510001A46BB68934205D040F21A2213491A4852
:10352000FFF752FCBB6823F00102FB681A60BB681E
:103530001B6BFA689A4202D2BB68FA681A63BB68CE
:103540001A6ABB689B6AF968CB1A1946FB685B6804
:10355000CB1A1A44BB681A62F968B868FFF75AFCBC
:1035600000E000BF1037BD4680BD00BFAC020300C5
:103570008C0003002C0103004401030054010300EC
:103580009C010300D40103004802030080B483B00F
:1035900000AF786039607B681B683A685A607B6866
:1035A0001A683B681A607B683A681A603B687A68F8
:1035B0005A6000BF0C37BD465DF8047B704780B48D
:1035C00083B000AF78607B681B687A6852685A6085
:1035D0007B685B687A6812681A607B687A685A60F0
:1035E0007B685A687B681A6000BF0C37BD465DF87F
:1035F000047B704780B485B000AF0346FB710023A5
:10360000FB600FE00C4AFB681B0113441B78FA793E
:103610009A4204D1FB681B01074A134406E0FB6889
:103620000133FB60FB68082BECDD002318461437E0
:10363000BD465DF8047B70470800002090B589B056
:1036400000AFF8600B467A60FB720023FB61FB7AE7
:103650001846FFF7CFFFB861BB69002B05D14FF4C7
:10366000AB7225492548FFF7AFFB00F009FCBB69A9
:103670005B68FB6112E0FB690C3B7B617B69002BA3
:1036800009D07A69FB689A4205D14FF4B3721A499E
:103690001B48FFF799FBFB691B68FB61BB6904339F
:1036A000FA699A42E7D100F001FCFB7A63F07F03EC
:1036B000DAB2FB681A72FB68082279681846FEF7CE
:1036C000FBFC104B1B68002B03D00E4B1B68F868EB
:1036D000984701F0F1FC0446BB691A1DFB680C33E6
:1036E00019461046FFF752FF204601F0E9FC00BFE3
:1036F0002437BD4690BD00BF50030300BC02030049
:10370000D4020300AC0A002090B583B000AF78600B
:103710007B68002B05D140F293120F490F48FFF749
:1037200053FB0F4B1B68002B03D00D4B1B687868B5
:1037300098477B6800221A7201F0BEFC04467B6841
:103740000C331846FFF73BFF204601F0B9FC00BFE1
:103750000C37BD4690BD00BF60030300E4020300C8
:10376000B00A002090B587B000AF03463960FB7106
:1037700001F0A2FC7861FEF7F1FA0346002B09D0B4
:1037800029492A48FFF7C8F940F2B71226492848C4
:10379000FFF71AFB786901F093FCFB791846FFF7F5
:1037A00029FF38613B69002B05D140F2BB121E494D
:1037B0002048FFF709FB3B69DB681846FFF776FAFC
:1037C000F860FB68002B01D1002329E03B69DB682E
:1037D0001A460021F868FEF70FFBFB68FA791A72A7
:1037E000FB6800225A72FB68082239681846FEF707
:1037F00063FC114B1B68002B03D00F4B1B68F86850
:10380000984701F059FC04463B691A1DFB680C33CC
:1038100019461046FFF7BAFE204601F051FCFB683E
:1038200018461C37BD4690BD74030300F802030020
:1038300020030300BC020300AC0A002090B583B053
:1038400000AF78607B68002B05D140F2F512164975
:103850001648FFF7B9FA7B681B7A5BB2002B05DAD2
:103860004FF4FB7210491248FFF7AEFA114B1B6878
:10387000002B03D00F4B1B68786898477B680022A9
:103880001A7201F019FC04467B680C331846FFF7E6
:1038900096FE204601F014FC7868FFF763FA00BF3B
:1038A0000C37BD4690BD00BF88030300E40203004F
:1038B00024030300B00A002080B582B000AF786016
:1038C0007B68002B05D14FF4067208490848FFF7C2
:1038D0007BFA7B681B7A5BB2002B01DA012300E0E4
:1038E000002318460837BD4680BD00BF9C03030077
:1038F000E402030080B582B000AF78607B68002BE3
:1039000005D140F22B2206490648FFF75DFA7B6895
:103910001B7A03F07F03DBB218460837BD4680BD33
:10392000B8030300E402030080B586B000AF7860FE
:103930000B46FB7000233B6100237B610023FB608F
:10394000FB781846FFF756FEF8607B68002B02D024
:10395000FB68002B01D1002335E001F0ADFBB8601E
:10396000FEF7FCF90346002B09D019491948FFF767
:10397000D3F840F2492216491748FFF725FAB868EC
:1039800001F09EFB00F07CFAFB685B687B6112E053
:103990007B690C3B3B613B69082279681846FEF75E
:1039A000DDFB0346002B03D100F080FA3B690AE0FF
:1039B0007B691B687B61FB6804337A699A42E7D1B3
:1039C00000F074FA002318461837BD4680BD00BFCA
:1039D000CC030300F80203002003030080B483B08B
:1039E00000AF78607B687A685A607B685A687B6849
:1039F0001A6000BF0C37BD465DF8047B704780B489
:103A000083B000AF786039607B685B683A681A60A1
:103A10007B685A683B685A607B683A685A603B68C2
:103A20007A681A6000BF0C37BD465DF8047B7047AA
:103A300080B483B000AF78607B681B687A68526896
:103A40005A607B685B687A6812681A607B687A687B
:103A50005A607B685A687B681A6000BF0C37BD46A5
:103A60005DF8047B704780B483B000AF78607B68FA
:103A70001B687A689A420CBF01230023DBB2184608
:103A80000C37BD465DF8047B7047FFFF80B584B0FE
:103A900000AF78607B68002B04D15F221C491D4871
:103AA000FFF792F97B689B6A1B78232B11D17B6807
:103AB000DB691A467B689B6A9A420AD97B68DB6994
:103AC0001A467B689B6A19467B68DB6A0B449A42FC
:103AD0000CD97B6819461048FFF71EF801F0ECFA84
:103AE0000346FB60FB68002BFCD10DE07B68DB69C3
:103AF0001A467B689B6A20339A4205D87B68194630
:103B00000648FFF709F8FFE700BF1037BD4680BD44
:103B100044040300DC030300F00303000C0403006F
:103B2000B0B582B000AF7860094B1B68184601F051
:103B3000C9FD0346013B1C46064B53F83430A3F144
:103B400014057B681C602B4618460837BD46B0BD7F
:103B5000C00B0020C00A002098B500AF094B00221E
:103B60001A80002406E0E300074A13441846FFF7D2
:103B700035FF01341F2CF6DD044B00221A6000BF14
:103B800098BD00BFC40B0020C00A0020C00B00205D
:103B900090B583B000AF3B1D1846FFF7C1FF044648
:103BA000084B1C60204600F033F9032384F83430BE
:103BB00004F11C03184601F0CCFA00BF0C37BD46D7
:103BC00090BD00BFC80B002080B586B000AF01F0EB
:103BD00073FAF8605C4BB3F90030002B40F0AC8016
:103BE0005A4B1B68002B00F0A78000233B613B1D54
:103BF0001846FFF795FF7861554B1B6893F83430F2
:103C000003F00703032B2CD1514B1B6893F835307D
:103C10001A467B689A4203D24D4B1B687B6115E0C4
:103C20004B4B1B6893F835301A467B689A420BD190
:103C3000474B1B6893F8343003F00803002B03D183
:103C4000434B1B687B6101E001233B61404B1B68D8
:103C500093F834203E4B1B6822F00802D2B283F85E
:103C600034203B4B1B687A699A4250D07B68DAB2A9
:103C7000384B1A70364B1B68BB60354A7B69136042
:103C8000354B1B68002B04D0334B1B687969B8682F
:103C900098473B69002B02D0B86800F063F8786958
:103CA00000F0B6F87B6993F834305BB223F0070379
:103CB0005BB243F003035BB2DAB27B6983F8342072
:103CC0007869FFF7E3FE254B1B78DBB2002B14D19C
:103CD000234B1B68002B03D0214B1B68B868984707
:103CE000BB681C331A467B691C331946104601F029
:103CF000EAF9F86801F0E4F922E0BB681C331A46DF
:103D00007B691C331946104601F0DDF914E0104BB5
:103D10001B68184600F07CF80D4B1B6893F8343094
:103D20005BB223F007035BB243F003035AB2084BC4
:103D30001B68D2B283F83420F86801F0C1F900BFE3
:103D40001837BD4680BD00BFC40B0020C00B00204B
:103D5000C80B0020CC0B0020D00B0020EC09002069
:103D6000D40B002090B583B000AF78607B68002B47
:103D700005D140F2D22221492148FFF725F801F070
:103D80009BF904461F4B1B687A689A420ED17B68E8
:103D900093F834305BB223F007035BB243F00303C4
:103DA0005BB2DAB27B6883F8342020E07B6893F85A
:103DB00034305BB223F007035BB243F001035BB224
:103DC000DAB27B6883F834207B6893F83530DB0007
:103DD0000D4A1A447B68143319461046FFF70FFE4C
:103DE0007B689A6B094B1B681343084A1360204693
:103DF00001F066F900BF0C37BD4690BD60040300BA
:103E0000DC030300C80B0020C00A0020C00B002008
:103E100090B583B000AF78607B68002B05D140F28D
:103E2000333213491348FEF7CFFF01F045F904463A
:103E30007B6814331846FFF7FBFD7B6893F8353039
:103E4000DB000D4A13441846FFF70DFE0346002B16
:103E500007D07B689B6BDA43084B1B681340074A0B
:103E60001360204601F02CF900BF0C37BD4690BD11
:103E70007C040300DC030300C00A0020C00B002008
:103E800098B500AF01F018F90446074BB3F90030BC
:103E90009BB201339BB21AB2034B1A80204601F049
:103EA0000FF900BF98BD00BFC40B002098B500AF4C
:103EB00001F002F90446104BB3F900309BB2013B0C
:103EC0009BB21AB20C4B1A800B4BB3F90030002B8B
:103ED0000CDC094B00221A80204601F0F1F8074B58
:103EE0001B68002B05D0FFF76FFE02E0204601F0B3
:103EF000E7F800BF98BD00BFC40B0020C80B00202E
:103F000080B400AF044BB3F900309BB21846BD46F5
:103F10005DF8047B704700BFC40B002080B483B001
:103F200000AF78607B687A685A607B685A687B6803
:103F30001A6000BF0C37BD465DF8047B704780B443
:103F400083B000AF78607B681B687A6852685A60FB
:103F50007B685B687A6812681A607B687A685A6066
:103F60007B685A687B681A6000BF0C37BD465DF8F5
:103F7000047B704790B583B000AF00F019F978600A
:103F800001F09AF804467868FFF742FF7B684C33EB
:103F9000184600F0E3FC7B68042283F8342078683C
:103FA000FCF764FD204601F08BF8FFF70DFE00BF23
:103FB0000C37BD4690BDFFFF90B585B000AF78606F
:103FC0007B68FB60FB68002B04D1872219491A48E3
:103FD000FEF7FAFEFB6893F8343003F00703022B78
:103FE00004D0882213491548FEF7EEFEF868FFF763
:103FF00081FC0346012B04D089220E491048FEF7AC
:10400000E3FE01F059F80446FB686FF001021A6301
:10401000FB6814331846FFF792FFF868FFF7A2FE1B
:10402000204601F04DF8FFF7CFFD00BF1437BD4625
:1040300090BD00BF3806030098040300AC040300E1
:10404000E804030080B586B002AFF860B9607A601A
:104050003B60FB6814331846FFF760FFFB687A6823
:104060001A62FB683A685A62FB68BA699A62FB682E
:10407000FA69DA62FB68986AFB68DB6A1A462321F0
:10408000FDF7BAFEFB68186AFB68596AFB689A6A12
:10409000FB68DB6A043B1A44244B01F0ABF8024690
:1040A000FB68DA6197F820301F2B04D9BE22204923
:1040B0002048FEF789FEFB6897F8202083F835201A
:1040C000FB6800229A63FB680022DA63FB68002227
:1040D00083F84020FB687A6A5A64FB687A6A9A64BB
:1040E000FB6800221A63FB68002283F83420FB6817
:1040F00000229A67FB680022DA67FB6803F14C0034
:10410000F9680023019300230093FB680A4A00F03A
:10411000E7FB0A4B1B68002B03D0084B1B68F868B1
:104120009847002318461037BD4680BD753F0000F4
:10413000480603002C050300B93F0000E00B0020F7
:1041400080B588B004AFF860B9607A603B60FB6806
:10415000002B05D140F2311212491348FEF734FE0C
:10416000BB69002B05D14FF499720E490F48FEF739
:104170002BFEBA680121F868FFF760FA7B6A0393A7
:1041800097F820300293FB690193BB6900933B6869
:104190007A68B968F868FFF755FF03461846103784
:1041A000BD4680BD58060300980403005005030077
:1041B00080B400AF034B1B681846BD465DF8047B16
:1041C000704700BFC80B002080B582B000AF786098
:1041D0007B68002B05D14FF4B2721C491C48FEF7D6
:1041E000F3FD7B6893F8343003F00703002B05D010
:1041F00040F2651215491748FEF7E6FD7868FFF7AB
:1042000079FB0346012B05D04FF4B3720F491248D6
:10421000FEF7DAFD7B6893F835301A4601239340A8
:104220001A467B689A637B68022283F83420786898
:1042300000F03EFAFFF7BCFF0346002B01D0FFF76A
:10424000C3FC002318460837BD4680BD680603003E
:104250009804030068050300E804030080B584B0F7
:1042600000AF78607B68002B05D140F28F122349A4
:104270002348FEF7A9FD7868FFF73CFB0346012BB6
:1042800005D04FF4C8721D491E48FEF79DFD7868A1
:10429000FFF712FB0346002B05D140F2911217499C
:1042A0001948FEF791FD7B6893F8343003F007035B
:1042B000042B01D100231CE07B6893F8343003F019
:1042C0000703002B02D07868FFF7A2FD00F0F4FE90
:1042D000F8607B684C33184600F040FB7B68042292
:1042E00083F834207868FCF7C1FBF86800F0E8FE3A
:1042F000002318461037BD4680BD00BF7C06030072
:1043000098040300E8040300A005030080B58AB008
:1043100004AFF860B9607A603B60F9680120FFF78C
:1043200021FA78617B69002B01D100231BE03868FA
:10433000FEF7BCFC38613B69002B04D17869FFF7BC
:104340007DFA00230FE07B6A039397F820300293F5
:104350003B6801933B6900937B68BA68F9687869A8
:10436000FFF770FE7B6918461837BD4680BDFFFF1A
:1043700080B584B000AF78607B68002B05D14FF426
:10438000FB7223492348FEF71FFD7868FFF7B2FA56
:104390000346012B05D040F2F7121D491E48FEF7D7
:1043A00013FD7868FFF788FA0346002B05D04FF419
:1043B000FC7217491948FEF707FD7B6893F8343003
:1043C00003F00703042B01D100231CE07B6893F862
:1043D000343003F00703002B02D07868FFF718FD94
:1043E00000F06AFEF8607B684C33184600F0B6FABD
:1043F0007B68042283F834207868FCF737FBF86880
:1044000000F05EFE002318461037BD4680BD00BF99
:104410009006030098040300E8040300D00503009D
:1044200090B585B000AF7860FFF7C2FEF860FB681A
:10443000002B05D140F23F221B491C48FEF7C4FC6B
:10444000F868FFF757FA0346012B05D04FF41072B6
:1044500015491748FEF7B8FC00F02EFE0446FB682D
:1044600000221A63F86800F0BFF8FB684C333A1D6D
:104470000021184600F016FCFB684C33184600F08B
:10448000B5FA204600F01CFEFFF79EFBFB681B6B95
:1044900013F1020F02D1FB6800221A63FB681B6B49
:1044A00018461437BD4690BDA406030098040300C7
:1044B000E804030080B582B000AF78607868FFF749
:1044C000AFFF034618460837BD4680BD80B584B0AF
:1044D00000AF78607868FBF759FFF860F868FFF77D
:1044E0009FFF034618461037BD4680BD90B587B084
:1044F00000AFF860B9607A60FB68002B05D140F22C
:10450000D52236493648FEF75FFCF868FFF7F2F926
:104510000346012B05D040F2D62230493148FEF740
:1045200053FCBB68022B09D0BB68022B4FDCBB6875
:10453000002B34D0BB68012B36D048E000F0BCFD26
:104540000446FB6893F8343003F00703012B14D1C1
:10455000F868FFF75DFC7B681A78FB6883F8352004
:10456000FB6893F835301A46012393401A46FB68DE
:104570009A63F868FFF7F6FB0DE07B681A78FB6832
:1045800083F83520FB6893F835301A4601239340B1
:104590001A46FB689A63204600F092FD18E0F8681E
:1045A000FFF712FE034614E0F868FFF785F90346AB
:1045B000012B04D1F868FFF751FE786103E0F86839
:1045C000FFF7D6FE7861FFF7FFFA7B6901E000BFD5
:1045D000002318461C37BD4690BD00BFB40603003B
:1045E00098040300E804030090B583B000AF78603E
:1045F0007B68002B05D140F24B3228492848FEF752
:10460000E3FB7868FFF776F90346012B05D04FF4FA
:10461000537222492348FEF7D7FBFFF7C9FD024634
:104620007B68934205D040F24D321C491E48FEF78C
:10463000CBFB7B6893F8343003F00704012C04D0E3
:10464000032C02D04FF0FF3324E000F035FD044688
:104650007868FFF7DDFB7B6893F834305BB223F0BA
:1046600007035BB243F002035BB2DAB27B6883F804
:1046700034207B684C33184600F0CAFA204600F01C
:104680001FFD0A4B1B68002B03D0084B1B68786882
:104690009847002318460C37BD4690BDC806030056
:1046A00098040300E80403001C060300D80B002054
:1046B00090B583B000AF78607B68002B05D140F2E5
:1046C00079321D491D48FEF77FFB7868FFF712F924
:1046D0000346012B05D040F27A3217491848FEF7FD
:1046E00073FB7B6893F8343003F00703022B02D08E
:1046F0004FF0FF331BE000F0DFFC04467B6814330F
:104700001846FFF71CFC7B684C33184600F080FA13
:104710007868FFF727FB204600F0D2FC094B1B68A6
:10472000002B03D0074B1B68786898470023184676
:104730000C37BD4690BD00BFDC06030098040300A3
:10474000E8040300DC0B002080B483B000AF786085
:104750007B687A685A607B685A687B681A6000BF19
:104760000C37BD465DF8047B704780B483B000AF62
:10477000786039607B681B683A685A607B681A68A1
:104780003B681A607B683A681A603B687A685A60CE
:1047900000BF0C37BD465DF8047B704780B483B022
:1047A00000AF78607B681B687A6852685A607B68E3
:1047B0005B687A6812681A607B687A685A607B68FE
:1047C0005A687B681A6000BF0C37BD465DF8047BF1
:1047D000704780B483B000AF78607B681B687A68EC
:1047E0009A420CBF01230023DBB218460C37BD46AA
:1047F0005DF8047B704780B586B000AFF860B960A3
:104800007A603B60FB6897F820205A72FB685B7AFD
:1048100023F00103DAB2FB685A72FB68BA68DA6106
:10482000FB687A681A62FB6800229A62FB683A6841
:104830005A6200237B610BE07B690233DB00FA687C
:10484000134404331846FFF77FFF7B6901337B6114
:104850007B69002BF0DD00BF00BF1837BD4680BD6F
:1048600090B585B000AF7860396000F025FC044653
:104870007868FFF7AEFF0346002B0CD17B681B68FE
:10488000143BFB60FB689A6A3B681A60204600F0A4
:1048900017FC002304E0204600F012FC4FF0FF3329
:1048A00018461437BD4690BD80B584B000AF78601F
:1048B0000023FB600BE0FB680233DB007A681344E3
:1048C00004331846FFF76AFFFB680133FB60FB689F
:1048D000002BF0DD00BF00BF1037BD4680BDFFFFDD
:1048E00080B586B002AFF860B9607A603B60FB6863
:1048F000002B05D140F20F1214491548FEF764FA57
:104900007B68002B05D14FF4887210491148FEF7DF
:104910005BFABB696FF00042934205D340F211127B
:104920000A490D48FEF750FAFB68BA680A21184692
:10493000FEF784FE3B7F0093BB693A687968F868AC
:10494000FFF759FF00BF1037BD4680BD00080300C8
:10495000F0060300040703001807030090B583B0B6
:1049600000AF78607B68002B05D14FF493721B4930
:104970001B48FEF729FA7B681846FEF7BBFF034683
:104980000A2B05D040F2271214491648FEF71CFAEC
:104990007B681846FEF790FF0346002B05D14FF4C5
:1049A00094720E491048FEF70FFA00F085FB04469A
:1049B0007868FFF779FF7B685B7A23F00103DAB24E
:1049C0007B685A72204600F07BFB7B681846FEF736
:1049D0009BFE002318460C37BD4690BD100803000F
:1049E000F0060300300703006C070300B0B588B081
:1049F00000AF78607B68002B05D14FF4CC727B4907
:104A00007B48FEF7E1F97B681846FEF773FF034623
:104A10000A2B05D040F2991274497648FEF7D4F972
:104A2000002400F049FB05467868FFF73DFF7B68EE
:104A30005B7A23F00103DAB27B685A726E4B1B6813
:104A4000002B04D06C4B1B687A6810469847FBF724
:104A500053FC02467B685B6A1A447B689A627B68F7
:104A60005B7A03F00403002B02D0644BBB6101E0CE
:104A7000634BBB61BB69BB600023FB6155E0FB6915
:104A80009B0007F12002134453F8183C1B683B615C
:104A9000FB69DB0014335B423A691344FB60FB683B
:104AA0009A6A7B689B6A9A4209D0FB689A6A7B681B
:104AB0009B6AD31A6FF0004293421FD300E000BFFD
:104AC000FB699B0007F12002134453F8183C1A6855
:104AD000FB699B0007F120010B4443F8182CFB698C
:104AE0009B0007F12002134453F8182CFB69DB00EC
:104AF000B9690B445B689A42C1D100E000BFFB6911
:104B0000002B0FD0FB699B0007F12002134453F8E0
:104B1000182CFB69013308329B0007F120010B447C
:104B200043F8182CFB690133FB61FB69002BD6D0DD
:104B3000344B1B680133334A1360324B1B687B6173
:104B4000BA687B68143319461046FFF70EFE02233D
:104B5000FB611EE07B6903F00303002B1DD1FB69A1
:104B6000C3F101039B0007F12002134453F8180C12
:104B7000FB69C3F101030233DB007A681344043399
:104B80001946FFF7F2FD7B699B087B61FB690133E6
:104B9000FB61FB69012BDDD900E000BF7B685B7A1C
:104BA00043F00103DAB27B685A727B685B7A03F0E8
:104BB0000403002B0ED0144B1B78012B0AD1134B8E
:104BC00093F8343003F00703022B03D10F48FFF7AB
:104BD0006FFD0124284600F073FA002C01D0FEF787
:104BE000F3FF002318462037BD46B0BD2008030060
:104BF000F006030030070300B80A0020EC0B002089
:104C0000E40B00207C0E002098000020F40B002014
:104C100090B583B000AF78607B68002B05D14FF46E
:104C200004721C491C48FEF7CFF87B681846FEF753
:104C300061FE03460A2B05D040F2112215491748A0
:104C4000FEF7C2F87B685B7A03F00103002B02D108
:104C50004FF0FF3319E0124B1B68002B04D0104BB0
:104C60001B687A681046984700F026FA0446786870
:104C7000FFF71AFE7B685B7A23F00103DAB27B68E8
:104C80005A72204600F01CFA002318460C37BD4625
:104C900090BD00BF30080300F0060300300703009A
:104CA000BC0A002090B585B000AFF860B9607A60AA
:104CB000FB68002B05D14FF40D7234493448FEF7E0
:104CC00083F8FB681846FEF715FE03460A2B05D04D
:104CD00040F235222D492F48FEF776F800F0ECF926
:104CE0000446BB68052B47D801A252F823F000BF49
:104CF000134D0000094D0000354D0000454D0000EA
:104D0000554D00006F4D0000FB685A6A7B681A60C1
:104D100033E07B681B686FF00042934205D340F29A
:104D20003F221A491C48FEF74FF87B681A68FB6857
:104D30005A6222E0FB685B7A23F00203DAB2FB6876
:104D40005A721AE0FB685B7A43F00203DAB2FB683E
:104D50005A7212E0FB685B7A03F00103002B03D068
:104D60007B6801221A6002E07B6800221A60FB68FF
:104D70009A6A7B681A6000E000BF204600F0A0F944
:104D8000002318461437BD4690BD00BF40080300FD
:104D9000F006030030070300D007030090B585B08C
:104DA00000AF3B461846FFF7CFFCFBF7A5FAF860CB
:104DB00000F082F904465FE0374B1B68143BBB6090
:104DC000BB689B6AFA68D31A6FF0004293425AD2CA
:104DD000324B1B68002B03D0304B1B68B8689847D8
:104DE000B868FFF761FDBB685B7A03F00203002B34
:104DF00006D1BB685B7A23F00103DAB2BB685A7252
:104E0000BB6803F114023B4611461846FFF7ADFCA0
:104E1000BB68DB69BA68126A10469847FBF76CFA00
:104E2000F8601F4B1B68002B03D01D4B1B68B86834
:104E300098473B461846FFF7CCFC0346002B00D0B2
:104E40001AE0BB6814331846FFF7A8FCBB685B7A0E
:104E500003F00203002B0FD0BB685B7A03F0010361
:104E6000002B09D0BB685B7A23F00103DAB2BB6880
:104E70005A72B868FFF7BAFD0748FFF7AAFC034665
:104E8000002B99D000E000BF204600F019F900BFC8
:104E90001437BD4690BD00BFE40B0020740E002007
:104EA000780E002090B585B000AF3B461846FFF75E
:104EB0004BFC00F001F904466BE03D4B1B68143BD2
:104EC000FB60FBF719FAB860FB689B6ABA68D31AF3
:104ED0006FF00042934263D2364B1B68002B03D025
:104EE000344B1B68F8689847F868FFF7DDFCFB68EF
:104EF0005B7A03F00203002B06D1FB685B7A23F098
:104F00000103DAB2FB685A72FB6803F114023B46F4
:104F100011461846FFF729FC274B00221A7020463D
:104F200000F0CEF8FB68DB69FA68126A1046984711
:104F3000224B1B68002B03D0204B1B68F868984756
:104F400000F0BAF804461C4B01221A703B46184682
:104F5000FFF73FFC0346002B00D01AE0FB68143338
:104F60001846FFF71BFCFB685B7A03F00203002B7B
:104F70000FD0FB685B7A03F00103002B09D0FB68BC
:104F80005B7A23F00103DAB2FB685A72F868FFF724
:104F90002DFD0748FFF71DFC0346002B8DD000E0D8
:104FA00000BF204600F08CF800BF1437BD4690BD0E
:104FB000EC0B0020740E002098000020780E0020DA
:104FC00080B584B000AF786007F108031946124835
:104FD000FFF746FC0346002B08D0FFF7E9F803462D
:104FE0001846FFF701FBFEF7EFFD11E0FBF784F930
:104FF000F860BA68FB68D31A6FF00042934207D298
:10500000BA68FB68D31ABB60BB681846FFF752FA50
:10501000FFF748FFD8E700BFEC0B002080B582B057
:1050200000AF00237B6009E07B68DB00074A134484
:105030001846FFF789FB7B6801337B607B68002B98
:10504000F2D000BF00BF0837BD4680BDE40B002092
:1050500080B586B004AF00237B6009E07B68DB008D
:10506000104A13441846FFF76FFB7B6801337B60DF
:105070007B68002BF2D00A230393042302934FF49E
:1050800000730193084B00930023084A084909481C
:10509000FFF756F80748FFF797F800BF0837BD46F7
:1050A00080BD00BFEC0B0020740C0020C14F00003D
:1050B000F8070300F40B0020EFF3108072B670477E
:1050C00080F310887047444A1368012B04D04FF0D6
:1050D00001031360414A1060414A116041484FF09A
:1050E000805101607047EFF3108272B63A48016850
:1050F00051B34FF0000101603848016891B1EFF3FE
:1051000009811EF0100F08BF21ED108B21E9F00F6F
:105110004FF000041EF0100F08BF012441F8044DA9
:10512000006801602E490968096808C9B1E8F00FF4
:10513000002B18BFB1EC108B81F309884EF0100ED4
:10514000002B18BF2EF0100E82F310884EF0040EC4
:10515000704723490860EFF3148222F0040282F3BF
:1051600014881E494FF0000008601B494FF00100F1
:1051700008601D481D49D0F8002041EA0201016085
:1051800018484FF08051016019480068006800BF5E
:1051900080F3088861B662B6704700BFEFF30880FD
:1051A0001EF0040F01D0EFF3098020E9F00F40F862
:1051B00004ED40F804ED1EF0040F02D080F30988DE
:1051C00001E080F3088800B500F0BAF95DF804EB5F
:1051D0004EF0040E70470000880E0020800E002064
:1051E000840E002004ED00E020ED00E00000FFFF51
:1051F00008ED00E080B489B000AFF860B9607A6073
:105200003B607B680433BB61BB6923F00703BB6170
:10521000BB69443BBB61BB697B610023FB6108E068
:10522000FB699B007A691344154A1A60FB690133D4
:10523000FB61FB69102BF3D9BA687B695A627B6901
:1052400000229A627B690022DA627B6900221A637B
:105250007B6900225A633A687B699A63FA687B69C2
:10526000DA637B694FF080721A647B6900221A60EE
:10527000BB6918462437BD465DF8047B704700BF04
:10528000EFBEADDE80B500AF2548FDF745FC254BF0
:105290001B889BB219462448FDF73EFC214B1B8816
:1052A0009BB203F00103002B02D02048FDF734FC31
:1052B0001C4B1B889BB203F00203002B02D01C483E
:1052C000FDF72AFC174B1B889BB203F00403002B4D
:1052D00002D01848FDF720FC124B1B889BB203F04C
:1052E0000803002B02D01448FDF716FC0D4B1B8859
:1052F0009BB203F48073002B02D01048FDF70CFC26
:10530000084B1B889BB203F40073002B02D00C489F
:10531000FDF702FC0B48FDF7FFFB00BF80BD00BF9F
:10532000540803002AED00E0640803007C08030031
:1053300088080300940803009C080300A4080300E5
:10534000B0080300BC08030080B500AF2648FDF795
:10535000E3FB264B1B78DBB219462548FDF7DCFB47
:10536000224B1B78DBB203F00103002B02D0214853
:10537000FDF7D2FB1D4B1B78DBB203F00203002BC1
:1053800002D01D48FDF7C8FB184B1B78DBB203F0B9
:105390000403002B02D01948FDF7BEFB134B1B780A
:1053A000DBB203F00803002B02D01548FDF7B4FB75
:1053B0000E4B1B78DBB203F01003002B02D0114818
:1053C000FDF7AAFB094B1B78DBB25BB2002B06DAB8
:1053D0000D4B1B6819460D48FDF79EFB02E00C487B
:1053E000FDF79AFB00BF80BDC008030029ED00E077
:1053F000CC080300E4080300F0080300FC080300E5
:105400000C0903001809030038ED00E0200903002F
:10541000BC08030080B500AF2148FDF77DFB214BA0
:105420001B78DBB219462048FDF776FB1D4B1B7835
:10543000DBB203F00103002B02D01C48FDF76CFB2C
:10544000184B1B78DBB203F00203002B02D0184884
:10545000FDF762FB134B1B78DBB203F00803002B54
:1054600002D01448FDF758FB0E4B1B78DBB203F05B
:105470001003002B02D01048FDF74EFB094B1B78A0
:10548000DBB25BB2002B06DA0C4B1B6819460C48EA
:10549000FDF742FB02E00B48FDF73EFB00BF80BD7D
:1054A0003009030028ED00E0440903005C09030013
:1054B00068090300740903008009030034ED00E06B
:1054C0008C090300BC08030080B500AF164B1B68B5
:1054D00003F00203002B02D01448FDF71DFB124B12
:1054E0001B6803F08043002B14D0114B1B78DBB2F8
:1054F000002B01D0FFF728FF0E4B1B78DBB2002BEF
:1055000001D0FFF787FF0C4B1B889BB2002B01D00B
:10551000FFF7B8FE044B1B68002B02DA0748FDF7C3
:10552000FBFA00BF80BD00BF2CED00E09C0903002A
:1055300029ED00E028ED00E02AED00E0B4090300C9
:1055400080B586B000AF78607B6828337B617B686C
:1055500004333B61474B1B68002B07D0454B1B684E
:1055600078699847F860FB68002B7ED03B691B6C1C
:1055700019464148FDF7D0FA3B695B6A19463F4836
:10558000FDF7CAFA3B699B6A19463D48FDF7C4FA24
:105590003B69DB6A19463B48FDF7BEFA3B691B6B6A
:1055A00019463948FDF7B8FA3B695B681946374830
:1055B000FDF7B2FA3B699B6819463548FDF7ACFA2E
:1055C0003B69DB6819463348FDF7A6FA3B691B695E
:1055D00019463148FDF7A0FA3B695B6919462F4827
:1055E000FDF79AFA3B699B6919462D48FDF794FA35
:1055F0003B69DB6919462B48FDF78EFA3B691B6A4C
:1056000019462948FDF788FA3B695B6B194627481C
:10561000FDF782FA3B699B6B19462548FDF77CFA3A
:105620003B69DB6B19462348FDF776FA7B681B68FC
:1056300003F00403002B09D0FEF7BAFD0346194618
:105640001D48FDF769FA07F013FC02E01B48FDF75F
:1056500063FA7B681B6803F01003002B02D1184823
:10566000FDF75AFAFFF730FFFEE700BF1837BD46D7
:1056700080BD00BF8C0E0020C4090300D4090300C4
:10568000E4090300F4090300040A0300140A0300F8
:10569000240A0300340A0300440A0300540A0300E6
:1056A000640A0300740A0300840A0300940A0300D6
:1056B000A40A0300B40A0300C40A0300E40A0300B6
:1056C000000B030080B483B000AF78607B6893FA6E
:1056D000A3F3B3FA83F37A68002A01D14FF0FF33C2
:1056E000013318460C37BD465DF8047B704780B522
:1056F00086B000AFF860B9607A603B60FDF7A8F94A
:1057000078617B69002B03D1386AFDF7D9F912E083
:105710007B691B8B7B827B691B8B43F040039AB2B6
:105720007B691A837B6A3A6A00217869FBF7C8F8BB
:105730007B697A8A1A8300BF1837BD4680BDFFFF98
:1057400080B500AF00F084FC054B064A5A61012287
:105750000549034800F01CFC0023184680BD00BF2B
:10576000900E0020EF560000240B030080B483B09D
:1057700000AF78607B6800221A6000BF0C37BD461E
:105780005DF8047B704780B485B000AF7860396005
:105790007B68FB6002E0FB681B68FB60FB681B68C2
:1057A000002BF8D1FB683A681A603B6800221A6047
:1057B00000BF1437BD465DF8047B704780B483B0EA
:1057C00000AF78607B681B6818460C37BD465DF8F3
:1057D000047B704780B483B000AF78607B681B683F
:1057E00018460C37BD465DF8047B704780B586B01F
:1057F00000AFF860B9607A607B687B61BB68002BA2
:1058000004D1922213491448FDF7DEFA7B68002B7D
:1058100012D193220F491148FDF7D6FA0CE0FB682C
:105820005A1CFA607F2B0CD87A68531C7B60BB68CB
:10583000591CB96012781A707B681B78002BEED166
:1058400000E000BF7A687B69D31A18461837BD4656
:1058500080BD00BF3C0C0300500B0300540B030041
:1058600080B487B000AF7860396000237B6100238B
:105870003B610023FB603968244BA3FB0123DA085A
:1058800013469B0013445B00CA1AD2B2FB68591C32
:10589000F96079680B443032D2B21A703B681B4A07
:1058A000A2FB0323DB083B603B68002BE3D17A6853
:1058B000FB68134400221A7000237B61FB68013BE4
:1058C0003B6117E07A687B6913441B78FB727A6846
:1058D0003B691A4479687B690B4412781A707A68BC
:1058E0003B691344FA7A1A707B6901337B613B6927
:1058F000013B3B617A693B699A42E3D3FB681846F6
:105900001C37BD465DF8047B704700BFCDCCCCCCC6
:1059100080B500AF0D4B5B68002B14D0FCF71EFA6E
:105920000346002B08D1FEF743FC0346002B03D0AF
:105930000748FBF7DBFE07E0044BD3F8B43018460A
:10594000FFF7BEFB00E000BF80BD00BFB80E002027
:10595000C00E002080B500AF0E4B5B68002B16D048
:10596000FCF7FCF90346002B0AD1FEF721FC0346A5
:10597000002B05D04FF0FF310748FBF7A9FD07E0EA
:10598000FFF79AFB0346034AC2F8B43000E000BFB9
:1059900080BD00BFB80E0020C00E002080B500AF53
:1059A000FCF7DCF90346002B01D1024B00E0024B6F
:1059B000184680BDE80E0020700F002090B585B01D
:1059C00000AFF860B9607A603B60FB68002B05D1DE
:1059D0004FF480729D499E48FDF7F6F9BB68072B8E
:1059E00005D940F2011299499A48FDF7EDF97B6813
:1059F000002B05D14FF4817294499748FDF7E4F9E3
:105A00003B6A002B05D140F2031290499348FDF701
:105A1000DBF9934B00221A609248FCF7E6FB034641
:105A2000914A1360914ABB6852F82330002B22D070
:105A30008B4B18688A4B1B68FA6813448C4A1946CA
:105A4000FFF7D4FE0246864B1B681344844A13605A
:105A5000834B1868824B1B68FA68D118834ABB686D
:105A600052F823301A46FFF7C1FE02467C4B1B68F2
:105A700013447B4A13607A4B1B68FA681344002274
:105A80001A70774B1B68FA6813445B221A70744BC8
:105A90001B680133FA68D418FAF72EFC034619463E
:105AA0002046FFF7DDFE0346724A13606C4B1A680E
:105AB000704B1B6813440133FA6813445D221A705B
:105AC000674B1A686B4B1B6813440233FA68134424
:105AD00000221A70624B1B68FA6813441846FCF7E0
