:1000000098290020D9B5010059B30100C559000055
:10001000E7B50100E7B50100E7B50100E7B501006C
:10002000000000000000000000000000E7B5010033
:10003000E7B50100000000000F5900008D8F02009D
:1000400021AC01008F960100BF9501004B97010084
:10005000959701008F960100BF9501004B97010015
:100060009597010035A8010069A801009DA801002D
:10007000D1A80100078E0100538E0100D18E01002E
:10008000358F0100000000000000000000000000AB
:100090000000000000000000000000000000000060
:1000A0000000000000000000000000000000000050
:1000B0000000000000000000000000000000000040
:1000C0000000000000000000000000000000000030
:1000D0000000000000000000000000000000000020
:1000E0000000000000000000000000000000000010
:1000F0000000000000000000000000000000000000
:1001000000000000000000000000000000000000EF
:1001100000000000000000000000000000000000DF
:1001200000000000000000000000000000000000CF
:1001300000000000000000000000000000000000BF
:1001400000000000000000000000000000000000AF
:10015000000000000000000000000000000000009F
:10016000000000000000000000000000000000008F
:10017000000000000000000000000000000000007F
:10018000000000000000000000000000000000006F
:10019000000000000000000000000000000000005F
:1001A000000000000000000000000000000000004F
:1001B000000000000000000000000000000000003F
:1001C000FFFFFFFFFFFFFFFFFFFFFFFFFFFFFFFF3F
:1001D000FFFFFFFFFFFFFFFFFFFFFFFFFFFFFFFF2F
:1001E000FFFFFFFFFFFFFFFFFFFFFFFFFFFFFFFF1F
:1001F000FFFFFFFFFFFFFFFFFFFFFFFFFFFFFFFF0F
:1002000010B5054C237833B9044B13B1044800E012
:1002100000BF0123237010BDE8090020000000008A
:100220001C30040008B5034B1BB10349034800E030
:1002300000BF08BD00000000EC0900201C300400D5
:1002400080B586B000AF074B3B603823BB603B46B0
:100250001946054828F054FD002318461837BD46B6
:1002600080BD00BF004C0300084C030080B500AF08
:100270001DF03AFD00201DF0BDFD19210A201DF0E2
:1002800013FF054A012306CA04481DF0E7FE1DF0CE
:10029000D5FD00BF80BD00BF64030020104C0300EB
:1002A00080B582B000AF7860184B1B684FF0FF310B
:1002B000184601F0AFFC164B1A78164B1B789A4281
:1002C00009D0134B1B781946124B1B781A4612485B
:1002D00002F0FCFF16E00E4B1B7819460F4802F0A7
:1002E000F5FF0B4B1B780133DAB2094B1A70094B3F
:1002F0001B780133DAB2074B1A70044B1B6818469F
:1003000001F096FD00BF0837BD4680BD100A0020F1
:10031000140A0020150A0020244C0300504C03004E
:1003200080B582B000AF7860184B1B684FF0FF318A
:10033000184601F06FFC164B1A78164B1B789A4240
:1003400009D0134B1B781946124B1B781A461248DA
:1003500002F0BCFF16E00E4B1B7819460F4802F066
:10036000B5FF0B4B1B780133DAB2094B1A70094BFE
:100370001B780133DAB2074B1A70044B1B6818461E
:1003800001F056FD00BF0837BD4680BD100A0020B1
:10039000140A0020150A0020244C0300504C0300CE
:1003A00080B582B000AF7860184B1B684FF0FF310A
:1003B000184601F02FFC164B1A78164B1B789A4200
:1003C00009D0134B1B781946124B1B781A4612485A
:1003D00002F07CFF16E00E4B1B7819460F4802F026
:1003E00075FF0B4B1B780133DAB2094B1A70094BBE
:1003F0001B780133DAB2074B1A70044B1B6818469E
:1004000001F016FD00BF0837BD4680BD100A002070
:10041000140A0020150A0020244C0300504C03004D
:1004200080B596B002AF0121AD4801F059FB0346FB
:10043000AC4A1360AB4B1B68002B05D1AA4802F0F5
:1004400045FF4FF0FF3381E2A84802F03FFFFFF77E
:10045000F7FEA74828F036FBF864FB6C002B03D1AD
:10046000A44802F033FF02E0A34802F02FFFF86C2B
:1004700028F01AFB87ED120AF86C28F007FB87EDCD
:10048000110AD7ED127AF5EEC07AF1EE10FA06D520
:100490009A4B01229A49072006F030F955E2D7ED30
:1004A000127AFDEEE76AD7ED127AB2EE047A67EEC1
:1004B000877AFDEEE77A17EE901A924B83FB0123C1
:1004C0009A10CB17D21A13469B0013445B00CA1A2A
:1004D00016EE901A8C4802F0F9FED7ED127AFDEE76
:1004E000E77A17EE900AD7ED127AB2EE047A67EE49
:1004F000877AFDEEE77A17EE901A824B83FB012391
:100500009A10CB17D21A13469B0013445B00CA1AE9
:10051000831807EE903AF8EEE77AC7ED127AD7ED36
:10052000117AF5EEC07AF1EE10FA06D5734B01227E
:100530007349072006F0E2F807E2D7ED117AFDEEE5
:10054000E76AD7ED117AB2EE047A67EE877AFDEEAC
:10055000E77A17EE901A6B4B83FB01239A10CB17A7
:10056000D21A13469B0013445B00CA1A16EE901A67
:10057000664802F0ABFED7ED117AFDEEE77A17EE92
:10058000900AD7ED117AB2EE047A67EE877AFDEE23
:10059000E77A17EE901A5B4B83FB01239A10CB1777
:1005A000D21A13469B0013445B00CA1A831807EE45
:1005B000903AF8EEE77AC7ED117A4FF4FA730193A7
:1005C000162300934FF4806300225149514804F0F0
:1005D00077FA0346504A13604F4B1B68002B06D135
:1005E0004E4B01224649072006F088F805E04C4BA7
:1005F00001224349072006F081F8474B1B68184643
:1006000004F0BCF9474802F061FE4FF4FA7301931D
:10061000142300934FF4806300224349434804F0BD
:100620004FFA0346424A1360414B1B68002B06D128
:10063000404B01223249072006F060F805E03E4BAE
:1006400001222F49072006F059F8786C33F070FB2F
:1006500002460B4643EC102B384824F085F903463C
:10066000002B06DA254B01222549032006F046F827
:100670001DE0D7ED117AFDEEE76AD7ED117AB2EE03
:10068000047A67EE877AFDEEE77A17EE901A1D4B33
:1006900083FB01239A10CB17D21A13469B001344F5
:1006A0005B00CA1A16EE901A174802F00FFE41F2CC
:1006B000883004F0D9FAB86C33F03AFB02460B46A6
:1006C00043EC102B1E4824F04FF90346002B39DA77
:1006D0000A4B01220A49032006F010F850E000BF3F
:1006E000844C0300100A0020904C0300B04C03001F
:1006F000004C0300D04C0300F04C0300104D0300ED
:10070000344D0300676666663C4D0300504D0300A0
:10071000A1020000684D0300080A00207C4D030080
:10072000A04D0300C84D030021030000E84D030065
:10073000040A0020FC4D0300244E0300504E030029
:100740005C4E0300D7ED127AFDEEE76AD7ED127A20
:10075000B2EE047A67EE877AFDEEE77A17EE901A2A
:100760007C4B83FB01239A10CB17D21A13469B00B4
:1007700013445B00CA1A16EE901A774802F0A6FDE1
:1007800041F2883000F0A4F90346184604F06CFAF0
:10079000724B1B68184604F0F1F8714802F096FDA0
:1007A0004FF4FA730193122300934FF480630022F5
:1007B0006C496D4804F084F903466C4A13606B4B36
:1007C0001B68002B06D16A4B01226A49072005F0FD
:1007D00095FF05E0684B01226649072005F08EFF72
:1007E00001201DF007FB022104201DF05DFC634A7F
:1007F000002306CA62481DF031FC1DF01FFB4FF4B8
:100800007A7004F03DFAD7ED117AFDEEE76AD7ED84
:10081000117AB2EE047A67EE877AFDEEE77A17EE88
:10082000901A4C4B83FB01239A10CB17D21A134614
:100830009B0013445B00CA1A381D009216EE903AD2
:10084000504A40212BF08EFB1E210F201DF02CFC66
:100850004D4A381D002306CA1DF000FC1DF0EEFABB
:10086000D7ED117AFDEEE76AD7ED117AB2EE047A90
:1008700067EE877AFDEEE77A17EE901A354B83FB29
:1008800001239A10CB17D21A13469B0013445B0026
:10089000CA1A16EE901A3D4802F018FDD7ED127AEA
:1008A000FDEEE76AD7ED127AB2EE047A67EE877A48
:1008B000FDEEE77A17EE901A264B83FB01239A1080
:1008C000CB17D21A13469B0013445B00CA1A381D7B
:1008D000009216EE903A2E4A40212BF043FB2F2136
:1008E00019201DF0E1FB284A381D002306CA1DF01F
:1008F000B5FB1DF0A3FAD7ED127AFDEEE76AD7ED4E
:10090000127AB2EE047A67EE877AFDEEE77A17EE96
:10091000901A104B83FB01239A10CB17D21A13465F
:100920009B0013445B00CA1A16EE901A194802F095
:10093000CDFC194802F0CAFC0C4B1B68184604F0A9
:100940001DF8164802F0C2FC91E500231846503706
:10095000BD4680BD676666663C4D0300040A002004
:10096000684E0300A10300008C4E03000C0A002017
:10097000984E0300344D0300B84E0300640300207A
:10098000DC4E0300F44E03005C030020084F03001C
:10099000244F0300344F03004C4F0300604F03000B
:1009A00080B500AF034802F091FC23F095FE00BF34
:1009B00080BD00BF9C4F030080B582B000AF78605F
:1009C000034802F083FC00BF0837BD4680BD00BF6E
:1009D000B04F030080B582B000AF134812F0B6FCF0
:1009E00003467B607968114802F070FC7868002348
:1009F0000F4A002112F0F6FB38603B68002B02D052
:100A00000C4802F063FC7B680121184612F018FCC8
:100A100038603B68002B02D0074802F057FC00BF4B
:100A20000837BD4680BD00BFC44F0300CC4F030054
:100A3000B9090000E44F0300FC4F030080B400AF8D
:100A4000034B1B681846BD465DF8047B704700BF2A
:100A5000180A002080B582B000AF1B4B1B68002B2A
:100A600002D0194B1B68984704F03AFF7860174B87
:100A70001B680133154A136003F074FF38603B684C
:100A80009B6C5A1E3B689A643B689B6C002B12D18E
:100A90003B685A6C3B689A643B6893F8343043F087
:100AA0000803DAB23B6883F83420786804F01CFF4E
:100AB00003F064FC02E0786804F016FF04F082FDA5
:100AC00000BF0837BD4680BD1C0A0020180A002060
:100AD00080B485B000AF78607B68002B03DA4FF0FC
:100AE000FF33FB6027E07B68164A82FB03129211FA
:100AF000DB17D31A4FF47A7202FB03F3FB607A68B8
:100B0000104B83FB02139911D317CB1A4FF47A7150
:100B100001FB03F3D31A4FF47A7202FB03F303F2DF
:100B2000E733084A82FB03129211DB17D31A1A46E5
:100B3000FB681344FB60FB6818461437BD465DF83C
:100B4000047B7047D34D621080B400AF0023184679
:100B5000BD465DF8047B704780B400AF00231846A3
:100B6000BD465DF8047B704780B400AF0023184693
:100B7000BD465DF8047B704780B400AF0023184683
:100B8000BD465DF8047B704780B582B000AF094B6D
:100B90007B6005E07B681B6898477B6804337B605B
:100BA0007B68054A9342F5D300BF00BF0837BD46B6
:100BB00080BD00BFB44B0300C44B030080B582B0BE
:100BC00000AF094B7B6005E07B681B6898477B683A
:100BD00004337B607B68054A9342F5D300BF00BFB6
:100BE0000837BD4680BD00BFC44B0300FC4B03006B
:100BF00080B500AF00F036F80023184680BD80B500
:100C000082B000AF7860FFF7D9FF17F0EFFA00BFAE
:100C10000837BD4680BDFFFF80B584B002AF142306
:100C200001930A2300934FF40063002209490A4804
:100C300003F046FF78607B68002B04D1D52207497A
:100C4000074802F09BFC786803F098FE00BF083765
:100C5000BD4680BDFF0B00002C5003004450030034
:100C60003450030080B500AF04F03AFE28F0DAF902
:100C700001F0CAFE04F0E6FD03F048FBFFF7CCFFED
:100C800004F0FAFD00F00CFB03F05CFB00231846B7
:100C900080BD80B483B000AF78607B687A685A60AA
:100CA0007B685A687B681A6000BF0C37BD465DF8E8
:100CB000047B704780B582B000AF78607B68002B02
:100CC00004D125220749084802F058FC7B6800221D
:100CD0001A607B6804331846FFF7DBFF00BF083754
:100CE000BD4680BD285103005850030080B584B034
:100CF00000AFF860B9601346FB80FB68002B02D19F
:100D00004FF0FF3320E0B86800F058F80346002B9E
:100D100002D04FF0FF3317E0FB68BA68092118468C
:100D200003F066F8FB68FA88DA82FB6800229A769C
:100D3000FB6800221A83FB680022DA63FB684033F9
:100D40001846FFF7B7FF002318461037BD4680BD91
:100D500080B582B000AF78607B68002B04D156224A
:100D60001249134802F00AFC7B68184603F09CF90C
:100D70000346092B04D057220C490E4802F0FEFB13
:100D80007B68184603F072F90346002B04D1582201
:100D90000649094802F0F2FB7B68184603F08EF81A
:100DA000002318460837BD4680BD00BF38510300F8
:100DB0006C5003007C500300B850030080B582B033
:100DC00000AF78600921786803F088F90346184677
:100DD0000837BD4680BDFFFF80B584B000AF7860A6
:100DE0000B467B800023FB607B68002B04D1D02264
:100DF0003749384802F0C2FB7B68184603F054F9C3
:100E00000346092B04D0D1223149334802F0B6FB06
:100E10007B68DB8A03F01003002B14D17B685B6ACC
:100E2000002B09D07B685B6A78689847F860FB689C
:100E3000002B01D0FB6847E07B68DB8A43F010039E
:100E40009AB27B68DA827B68DB8A03F00803002BA6
:100E500008D07B681B8B03F00803002B02D06FF0D7
:100E6000060331E07B689B6A002B07D07B689B6A96
:100E70007A88114678689847F86007E07B8823F005
:100E8000F0031B051B0D9AB27B681A83FB68002BCD
:100E900003D0FB6813F1060F15D17B681B8B43F061
:100EA00008039AB27B681A837B689B7E0133DAB2AF
:100EB0007B689A767B689B7E002B04D1FF220449D5
:100EC000064802F05BFBFB6818461037BD4680BD44
:100ED000505103006C5003007C5003001451030078
:100EE00080B584B000AF78600023FB607B68002B86
:100EF00005D14FF489721E491E4802F03FFB7B6802
:100F0000184603F0D1F80346092B05D040F213121E
:100F10001749194802F032FB7B689B7E002B02D1F7
:100F20004FF0FF331FE07B689B7E013BDAB27B68AA
:100F30009A767B689B7E002B01D0002313E07B68B0
:100F4000DB6A002B04D07B68DB6A78689847F8601E
:100F5000FB68002B03D0FB6813F1060F02D17B68FE
:100F600000221A83FB6818461037BD4680BD00BFBB
:100F7000605103006C5003007C50030090B585B0B5
:100F800000AFF860B9607A603B60FB68002B05D168
:100F90004FF4A0721849194802F0F0FAFB6818469D
:100FA00003F082F80346092B05D040F241121249A2
:100FB000134802F0E3FAFB689B7E002B05D14FF04B
:100FC000FF3001F0B9FA002311E0FB681B6B002B26
:100FD00008D0FB681C6B3B687A68B968F868A04762
:100FE000034604E06FF0050001F0A6FA002318465E
:100FF0001437BD4690BD00BF705103006C50030014
:101000007C50030090B585B000AFF860B9607A609D
:101010003B60FB68002B05D140F26B121849194860
:1010200002F0ACFAFB68184603F03EF80346092BC1
:1010300005D04FF4B6721249134802F09FFAFB68CC
:101040009B7E002B05D14FF0FF3001F075FA002395
:1010500011E0FB685B6B002B08D0FB685C6B3B68A6
:101060007A68B968F868A047034604E06FF00500A5
:1010700001F062FA002318461437BD4690BD00BF48
:10108000805103006C5003007C50030080B584B095
:1010900000AFF860B9607A60FB68002B05D140F2C0
:1010A0008F121149114802F069FAFB68184602F0E4
:1010B000FBFF0346092B05D04FF4C8720A490C48C0
:1010C00002F05CFAFB689B6B002B07D0FB689B6B04
:1010D0007A68B968F8689847034601E06FF005033D
:1010E00018461037BD4680BD905103006C50030078
:1010F0007C50030080B582B000AF786039607B68B7
:10110000002B05D140F2AB120C490D4802F036FA23
:101110007B68184602F0C8FF0346092B05D04FF440
:10112000D6720649074802F029FA7B683A68DA6104
:10113000002318460837BD4680BD00BFA4510300F8
:101140006C5003007C50030080B483B000AF786023
:1011500039607B681B683A685A607B681A683B682C
:101160001A607B683A681A603B687A685A6000BF08
:101170000C37BD465DF8047B704780B483B000AF88
:1011800078607B681B687A6852685A607B685B6825
:101190007A6812681A607B687A685A607B685A6855
:1011A0007B681A6000BF0C37BD465DF8047B704752
:1011B00080B582B000AF78607B681433194603486D
:1011C000FFF7C2FF00BF0837BD4680BD8001002089
:1011D00090B583B000AF00237B600D4B3B603B6854
:1011E0001B683A689A420ED03B681B68143B7B60D0
:1011F00004F076FB04467B6814331846FFF7BDFF06
:10120000204604F071FB7B6818460C37BD4690BD44
:101210008001002080B582B000AFFFF7D9FF786071
:101220007B68002B1BD07B689B6F3B603B68002B6F
:1012300002D03B6878689847786802F017FF034649
:10124000012B03D1786802F039FEE6E77B689B6AE0
:10125000184602F061F9786802F0CAFEDDE700BFC7
:1012600000BF0837BD4680BD80B584B000AF786050
:101270000023FB600CE0094AFB6852F82330BB6096
:10128000BB68002B01D0BB689847FB680133FB604B
:10129000FB68032BEFD9FFF7BDFFE9E7A00B0020A8
:1012A00080B588B004AF0023FB6024E03B1DFA68E2
:1012B0001549184601F090FFFB68DB01134A9818A6
:1012C000FB681B02124A1344391D202203921F227D
:1012D00002924FF480720192009300230D4A03F0B2
:1012E00009FBFB68DB01094A1344184603F046FB7F
:1012F000FB680133FB60FB68002BD7D000BF00BF49
:101300001037BD4680BD00BFC0510300200A002039
:10131000A00A00206912000080B483B000AF78609A
:101320007B687A685A607B685A687B681A6000BF7D
:101330000C37BD465DF8047B704780B483B000AFC6
:10134000786039607B685B683A681A607B685A68C5
:101350003B685A607B683A685A603B687A681A60F2
:1013600000BF0C37BD465DF8047B704780B483B086
:1013700000AF78607B681B687A689A420CBF0123D3
:101380000023DBB218460C37BD465DF8047B70477E
:1013900080B582B000AF78607B6814331846FFF7E1
:1013A000BBFF002318460837BD4680BD80B586B018
:1013B00000AFF860B9601346FB71B86803F0EEFC4B
:1013C000FB79002B02D0012B07D031E0BB6814332E
:1013D0001946F868FFF7B1FF31E0FB681B687B61D5
:1013E00017E07B69143B3B61BB6893F835203B6990
:1013F00093F835309A4209D23B6903F11402BB6875
:10140000143319461046FFF798FF06E07B691B6806
:101410007B617A69FB689A42E3D17A69FB689A42F8
:101420000CD1BB6814331946F868FFF786FF05E056
:10143000A3220549054802F0A1F800E000BF0023FF
:1014400018461837BD4680BDF0560300C85103004A
:1014500080B584B000AF78607B681B68143BFB608C
:10146000F86803F0FFFC002318461037BD4680BD26
:1014700090B585B000AF786012E004F031FA034611
:101480001C467B681B68143BFB60FB684FF0FF3217
:101490001A63F86803F0E6FC2346184604F024FAC1
:1014A0007868FFF763FF0346002BE6D00023184659
:1014B0001437BD4690BDFFFF80B584B000AFF86023
:1014C000B9607A60FB70FB68002B05D14FF496720F
:1014D0001749184802F052F87B68B3F5803F05D3EE
:1014E00040F22D121249144802F048F8FB78002B04
:1014F00008D0FB78012B05D04FF497720C490F48A8
:1015000002F03CF8FB68BA680221184602F070FC51
:10151000FB681846FFF73CFF7B689AB2FB689A832A
:10152000FB68FA785A72002318461037BD4680BD12
:10153000A8560300CC510300DC510300F051030016
:1015400080B582B000AF78607B68002B05D14FF486
:10155000AB721649164802F011F87B68184602F083
:10156000A3FD0346022B05D040F257120F49114844
:1015700002F004F87B68184602F078FD0346002B61
:1015800005D14FF4AC7209490B4801F0F7FF7B68B5
:1015900014331846FFF76CFF7B68184602F08EFC88
:1015A000002318460837BD4680BD00BFB45603006F
:1015B000CC5103002C5203007452030080B586B056
:1015C00000AFF860B9601346FB71BB68B3F5803FAC
:1015D00005D340F289121F491F4801F0CFFFFB7964
:1015E000002B08D0FB79012B05D04FF4C5721949A7
:1015F0001A4801F0C3FF04F073F9786100F088FF26
:101600000346002B09D01349154801F05FFE4FF443
:10161000C6721049134801F0B1FF786904F064F90B
:10162000F968022002F078FC38613B69002B01D197
:101630003B690BE03B691846FFF7AAFEBB689AB20C
:101640003B699A833B69FA795A723B6918461837A5
:10165000BD4680BDC4560300DC510300F0510300B9
:10166000A4520300C851030080B584B000AF786075
:101670007B68002B05D14FF4DB722049204801F034
:101680007DFF7B68184602F00FFD0346022B05D054
:1016900040F2B71219491B4801F070FF7B681846E9
:1016A00002F0E4FC0346002B05D04FF4DC72134932
:1016B000154801F063FF04F013F9F86000F028FF0B
:1016C0000346002B09D00D49104801F0FFFD4FF4EF
:1016D000DD720A490E4801F051FFF86804F004F980
:1016E0007B6814331846FFF7C3FE7B68184602F088
:1016F0007FFC002318461037BD4680BDD45603003A
:10170000CC5103002C520300CC520300A45203001E
:10171000C851030090B587B000AF786039607B682E
:10172000002B05D140F2E5125549564801F026FF3D
:101730007B68184602F0B8FC0346022B05D04FF434
:10174000F3724F49504801F019FF504B1B68002BB2
:1017500004D04E4B1B687A681046984704F0C0F8D6
:1017600004467B689B8B002B09D07B689B8B013BDD
:101770009AB27B689A83204604F0B6F871E03B6821
:10178000002B05D1204604F0AFF86FF0010372E0A2
:1017900004F0A6F8786102F08DFF0346002B09D013
:1017A00037493B4801F092FD40F20622344939485E
:1017B00001F0E4FE04F094F8386103F0D3F8034636
:1017C000002B09D12E49344801F080FD40F2062259
:1017D0002B49304801F0D2FE04F082F8F86000F0A6
:1017E00097FE0346002B09D025492C4801F06EFDD9
:1017F00040F206222249274801F0C0FEF86804F0B2
:1018000073F8386904F070F8786904F06DF803F043
:10181000A9F8B860BB6800221A637B6803F1140062
:101820007B685B7A1A46B968FFF7C0FD3B68002BFE
:101830000BDDBB684C333A460021184603F046FEE8
:10184000BB684C33184603F0E5FC204604F04CF826
:1018500002F094FDBB681B6B002B02D0BB681B6BB6
:1018600009E00F4B1B68002B04D00D4B1B687A68F6
:1018700010469847002318461C37BD4690BD00BF50
:10188000E4560300CC5103002C520300800C0020CE
:1018900008530300C851030034530300A45203004B
:1018A000840C002080B582B000AF78600021786899
:1018B000FFF730FF034618460837BD4680BDFFFFDF
:1018C000B0B582B000AF78607B68002B05D140F2E4
:1018D0005F222649264801F051FE7B68184602F037
:1018E000E3FB0346022B05D04FF418721F49214831
:1018F00001F044FE204B1B68002B04D01E4B1B68DC
:101900007A6810469847002503F0EAFF04467B6892
:1019100014331846FFF72AFD0346002B06D17B68D7
:1019200014331846FFF794FD012512E07B689B8B6A
:101930004FF6FF72934206D07B689B8B01339AB2BD
:101940007B689A8305E0204603F0CEFF6FF0020328
:1019500007E0204603F0C8FF012D01D102F00EFD83
:10196000002318460837BD46B0BD00BF045703002A
:10197000CC5103002C520300880C002080B586B0A7
:1019800000AFF860B9607A60FB68002B05D14FF4B6
:1019900028721849184801F0F1FDFB68184602F05A
:1019A00083FB0346022B05D040F2A12211491348C4
:1019B00001F0E4FDBB68012B16D17B687B6103F06D
:1019C0008FFF03463B61FB6814331846FFF750FD59
:1019D0007B699AB2FB689A833B69184603F084FFDF
:1019E00002F0CCFC002301E04FF0FF33184618371B
:1019F000BD4680BD14570300CC5103002C52030098
:101A000080B584B000AFF860B9601346FB71FB6825
:101A1000002B05D140F2E6221049114801F0AEFD3D
:101A2000FB68BA680321184602F0E2F9FB68184621
:101A3000FFF7AEFCFB6801229A83FB6800221A6262
:101A4000FB68FF229A77FB680022DA77FB680122A5
:101A50005A72002318461037BD4680BD2457030034
:101A60006C53030080B582B000AF78607B68002BB8
:101A700005D14FF444721649164801F07FFD7B688A
:101A8000184602F011FB0346032B05D040F2113239
:101A90000F49114801F072FD7B68184602F0E6FA22
:101AA0000346002B05D140F2123209490B4801F0E0
:101AB00065FD7B6814331846FFF7DAFC7B6818462F
:101AC00002F0FCF9002318460837BD4680BD00BF70
:101AD000345703006C53030080530300C4530300C6
:101AE00080B584B000AF78600B46FB7003F0F8FE61
:101AF000F86000F00DFD0346002B09D01749184887
:101B000001F0E4FB4FF44E721449164801F036FD23
:101B1000F86803F0E9FE7968032002F0FDF9B86087
:101B2000BB68002B01D1BB6813E0BB681846FFF708
:101B30002FFCBB6801229A83BB6800221A62BB6833
:101B4000FF229A77BB680022DA77BB6801225A72BB
:101B5000BB6818461037BD4680BD00BF4457030020
:101B6000A4520300C851030080B584B000AF786070
:101B70007B68002B05D14FF459722049204801F0B1
:101B8000FDFC7B68184602F08FFA0346032B05D054
:101B900040F2653219491B4801F0F0FC7B68184699
:101BA00002F064FA0346002B05D040F26632134976
:101BB000154801F0E3FC03F093FEF86000F0A8FC88
:101BC0000346002B09D00D49104801F07FFB4FF46C
:101BD0005A720A490E4801F0D1FCF86803F084FEFD
:101BE0007B6814331846FFF743FC7B68184602F005
:101BF000FFF9002318461037BD4680BD5457030037
:101C00006C53030080530300F8530300A4520300F5
:101C1000C851030090B587B000AF7860396003F019
:101C20005FFE786102F046FD0346002B09D077493C
:101C3000774801F04BFB4FF465727449754801F029
:101C40009DFC03F04DFE386102F08CFE0346002B34
:101C500009D16E49704801F039FB4FF465726B4948
:101C60006C4801F08BFC03F03BFEF86000F050FC88
:101C70000346002B09D06549684801F027FB4FF463
:101C800065726249634801F079FCF86803F02CFE44
:101C9000386903F029FE786903F026FE7B68002B83
:101CA00005D140F2973259495D4801F067FC7B68E5
:101CB000184602F0F9F90346032B05D04FF466727B
:101CC0005249584801F05AFC02F04CFEB86003F04B
:101CD00007FE0446544B1B68002B04D0524B1B6874
:101CE0007A6810469847BB6800221A637B681B6AB3
:101CF000BA689A4210D17B68DB7FFF2B06D07B68E5
:101D0000DB7F0133DAB27B68DA776DE0204603F0DF
:101D1000EBFD6FF0020374E07B689B8B002B1ED001
:101D20007B689B8B013B9AB27B689A837B68BA681D
:101D30001A62BB6893F835207B689A777B68DB7FF3
:101D4000FF2B06D07B68DB7F0133DAB27B68DA7762
:101D50004AE0204603F0C8FD6FF0020351E03B6803
:101D6000002B09D1BB686FF001021A63204603F013
:101D7000BBFD6FF0010344E0BB6893F835207B683E
:101D80001B6A93F835309A4207D27B68186ABB68A1
:101D900035331A46022102F083FF7B6803F11400F9
:101DA0007B685B7A1A46B968FFF700FB3B68002B3B
:101DB0000BDDBB684C333A460021184603F086FB26
:101DC000BB684C33184603F025FA204603F08CFD1F
:101DD00002F0D4FABB681B6B002B02D0BB681B6BF4
:101DE0000FE003F07DFD0446204603F07DFD0F4B20
:101DF0001B68002B04D00D4B1B687A68104698476F
:101E0000002318461C37BD4690BD00BF6457030031
:101E100008530300C851030034530300A4520300C5
:101E20006C53030080530300800C0020840C0020BE
:101E300090B587B000AF78607B68002B05D140F289
:101E400044426349634801F099FB7B68184602F0FD
:101E50002BF90346032B05D040F245425C495E480E
:101E600001F08CFB00237B6103F03AFD386102F046
:101E700079FD0346002B09D15549584801F026FA4F
:101E800040F24A425249564801F078FB03F028FDDF
:101E9000F86000F03DFB0346002B09D04C49514847
:101EA00001F014FA40F24A4249494D4801F066FBFC
:101EB000F86803F019FD386903F016FD02F052FDD1
:101EC000B86003F00DFD0446474B1B68002B04D09F
:101ED000454B1B687A68104698477B681B6ABA684E
:101EE0009A4209D0BB684FF0FF321A63204603F0D4
:101EF000FBFC4FF0FF3367E07B68DB7F013BDAB22E
:101F00007B68DA777B68DB7F002B54D17B689A7F14
:101F10007B681B6A93F835309A4207D07B68186A51
:101F20007B681E331A46022102F0BAFE7B68143326
:101F30001846FFF71BFA0346002B23D17B685B6929
:101F4000143BBB607B68BA681A62BB6893F83520A3
:101F50007B689A777B68DB7FFF2B0DD07B68DB7F0C
:101F60000133DAB27B68DA777B6814331846FFF7FF
:101F70006FFA01237B611EE0204603F0B5FC6FF091
:101F8000020321E07B689B8B4FF6FF7293420CD0DB
:101F90007B689B8B01339AB27B689A837B680022B3
:101FA0001A627B68FF229A7705E0204603F09CFCCA
:101FB0006FF0020308E0204603F096FC7B69012BDA
:101FC00001D102F0DBF9002318461C37BD4690BD55
:101FD000745703006C530300805303003453030011
:101FE000C8510300A4520300880C002080B584B0BF
:101FF00000AFF860B9601346FB71FB68002B05D198
:1020000040F2F4421249134801F0B8FAFB79002B70
:1020100008D0FB79012B05D040F2F5420C490E485F
:1020200001F0ACFAFB68BA680421184601F0E0FE42
:10203000FB68FA795A72FB681846FFF7A9F9FB6842
:102040000022DA61002318461037BD4680BD00BF6C
:102050008857030038540300F051030080B584B062
:1020600000AF78600B46FB70FB78002B08D0FB7844
:10207000012B05D040F24C521849194801F07EFA64
:1020800003F02EFCF86000F043FA0346002B09D061
:102090001249144801F01AF940F24E520F49124801
:1020A00001F06CFAF86803F01FFC7968042001F075
:1020B00033FFB860BB68002B01D1BB680AE0BB6886
:1020C000FA785A72BB681846FFF762F9BB680022BB
:1020D000DA61BB6818461037BD4680BD98570300CB
:1020E000F0510300A4520300C8510300B0B586B0FC
:1020F00000AF786039607B68002B05D140F2A452B4
:102100004C494D4801F03AFA7B68184601F0CCFF83
:102110000346042B05D040F2A5524649474801F03A
:102120002DFA3B68002B02D14FF0FF337DE00023F6
:102130003B6103F0D5FB03461D467B68DA693B68CB
:102140001A437B68DA613E4B1B68002B04D03C4B82
:102150001B687A68104698477B6814331846FFF767
:1021600005F90346002B56D17B685B697B614DE026
:102170007B69143BFB604FF0FF34FB6893F8403001
:1021800003F00103002B0AD0FB68DA6B7B68DB6984
:102190001A40FB68DB6B9A421FD100241DE0FB68EC
:1021A00093F8403003F00203002B0FD0FB68DA6B8A
:1021B0007B68DB691340002B0FD0FB68DA6B7B6810
:1021C000DB691A40FB68DA63002406E02B461846F8
:1021D00003F08AFB6FF0090327E07B691B687B61D2
:1021E000002C13D1FB6893F8403003F00403002B5C
:1021F00007D07B68DA69FB68DB6BDB431A407B68DE
:10220000DA61F86802F02EFE01233B617B6814332B
:102210007A699A42ACD12B46184603F065FB3B69BC
:10222000012B01D102F0AAF8002318461837BD4649
:10223000B0BD00BFA8570300385403004C5403003E
:10224000880C0020B0B588B000AFF860B9603B6082
:102250001346FB71FB68002B05D140F223628349D2
:10226000834801F08BF9FB68184601F01DFF034617
:10227000042B05D040F224627C497E4801F07EF9AF
:1022800003F02EFBF86102F015FA0346002B09D08B
:102290007649794801F01AF840F227627349774885
:1022A00001F06CF903F01CFBB86102F05BFB034624
:1022B000002B09D16D49724801F008F840F22762FD
:1022C0006A496E4801F05AF903F00AFB786100F0A0
:1022D0001FF90346002B09D064496A4800F0F6FF55
:1022E00040F227626149654801F048F9786903F0D6
:1022F000FBFAB86903F0F8FAF86903F0F5FABB687D
:10230000002B02D14FF0FF33ABE04FF0FF3402F06F
:1023100029FB38613B6900221A635B4B1B68002B69
:1023200004D0594B1B68FA681046984703F0D8FA56
:1023300003461D46FB7903F00103002B08D0FB6820
:10234000DA69BB681340BA689A4214D1002412E0DB
:10235000FB7903F00203002B07D0FB68DA69BB6846
:102360001340002B07D0002405E040F246623F49AD
:10237000424801F003F9002C1FD13B6B002B05D024
:10238000FB68DA69BB681A403B6B1A60FB68DA6964
:10239000BB681A403B69DA633B69FA7983F84020ED
:1023A000FB7903F00403002B4CD0FB68DA69BB68AF
:1023B000DB431A40FB68DA6144E03B68002B0AD13A
:1023C0003B696FF001021A632B46184603F08CFA42
:1023D0006FF0010345E03B69BA68DA633B69FA795B
:1023E00083F84020FB6803F11400FB685B7A1A460F
:1023F0003969FEF7DBFF3B68002B0BDD3B694C3393
:102400003A460021184603F061F83B694C33184600
:1024100002F000FF2B46184603F066FA01F0AEFF0B
:102420003B691B6B002B02D03B691B6B19E003F06F
:1024300057FA03461D463B6B002B03D03B69DA6B12
:102440003B6B1A602B46184603F04EFA0F4B1B6885
:10245000002B04D00D4B1B68FA68104698473B6967
:102460001B6B18462037BD46B0BD00BFB8570300F0
:10247000385403004C54030008530300C8510300B0
:1024800034530300A4520300800C0020840C00206D
:1024900080B582B000AF03F023FA78600A4B1B7856
:1024A000DBB20133DAB2084B1A70084B1B68002B01
:1024B00002D0064B1B689847786803F015FA00BFF6
:1024C0000837BD4680BD00BFB80B0020B00B002010
:1024D00080B582B000AF03F003FA78600A4B1B6846
:1024E000002B02D0084B1B689847084B1B78DBB2C7
:1024F000013BDAB2054B1A70786803F0F5F900BFBA
:102500000837BD4680BD00BFB40B0020B80B0020CB
:1025100080B582B000AF03F0E3F97860054B1B781B
:10252000FB70786803F0E0F9FB7818460837BD4681
:1025300080BD00BFB80B002080B584B000AF7860CC
:10254000FFF7E6FF0346002B03D00A4A7B681360BF
:102550000CE002F007FAF860FB68002B03D1054A93
:102560007B68136002E0FB687A681A631037BD4627
:1025700080BD00BFBC0B002080B582B000AFFFF76C
:10258000C7FF0346002B01D0074B09E002F0EAF930
:1025900078607B68002B02D07B68303300E0024B10
:1025A00018460837BD4680BDBC0B002080B489B0FA
:1025B00000AFF860B9607A60FB68FB61BB68DBB2B2
:1025C0007B617B68032B40D9FB6803F00303002B7E
:1025D0003BD1FB68BB617B691B027A6913433B619A
:1025E0003B691B043A6913433B6116E0BB691A1D42
:1025F000BA613A691A60BB691A1DBA613A691A6010
:10260000BB691A1DBA613A691A60BB691A1DBA61C1
:102610003A691A607B68103B7B607B680F2BE5D8BA
:1026200007E0BB691A1DBA613A691A607B68043B0E
:102630007B607B68032BF4D8BB69FB6105E0FB6919
:102640005A1CFA617A69D2B21A707B685A1E7A6093
:10265000002BF4D1FB6818462437BD465DF8047B97
:10266000704780B48BB000AFF860B9607A60FB68E7
:102670007B62BB683B627B687B617B690F2B4DD9BA
:102680003A6A7B6A134303F00303002B46D17B6A4B
:10269000FB613B6ABB6122E0BA69131DBB61FB6948
:1026A000191DF96112681A60BA69131DBB61FB69D3
:1026B000191DF96112681A60BA69131DBB61FB69C3
:1026C000191DF96112681A60BA69131DBB61FB69B3
:1026D000191DF96112681A607B69103B7B617B6987
:1026E0000F2BD9D80AE0BA69131DBB61FB69191D0C
:1026F000F96112681A607B69043B7B617B69032B7B
:10270000F1D8FB697B62BB693B6207E03A6A531C04
:102710003B627B6A591C796212781A707B695A1E77
:102720007A61002BF2D1FB6818462C37BD465DF864
:10273000047B704780B487B000AFF860B9607A60FE
:10274000FB687B61BB683B613A697B699A4226D230
:102750003A697B6813447A699A4220D27A697B6825
:1027600013447B613A697B6813443B6109E03B6930
:10277000013B3B617B69013B7B613B691A787B696B
:102780001A707B685A1E7A60002BF0D10CE03A690F
:10279000531C3B617B69591C796112781A707B6804
:1027A0005A1E7A60002BF2D1FB6818461C37BD46D2
:1027B0005DF8047B704780B489B000AFF860B96001
:1027C0007A6000237B61FB68FB61BB68BB6112E040
:1027D000FB691B781A46BB691B78D31A7B617B693E
:1027E000002B0CD1FB690133FB61BB690133BB6179
:1027F0007B68013B7B607B68002BE9D100E000BF78
:102800007B6918462437BD465DF8047B704780B568
:1028100084B000AF78603960386800F0C0F80346D3
:10282000BB60BB68002B01D17B681BE0786800F0BF
:10283000B6F80346FB6010E0FB68013BFB60BB6839
:102840001A4639687868FFF7B6FF0346002B01D1B6
:102850007B6807E07B6801337B60FA68BB689A425B
:10286000EADA002318461037BD4680BD80B487B031
:1028700000AFF860B9607A607B68002B21D0FB68FC
:102880007B61BB683B613A69531C3B617B69591CA6
:10289000796112781A701B78002B0CD104E07B69E7
:1028A0005A1C7A6100221A707B68013B7B607B684E
:1028B000002BF4D105E07B68013B7B607B68002B3B
:1028C000E1D1FB6818461C37BD465DF8047B7047B4
:1028D00080B485B000AF786039607B68FB6009E048
:1028E0003B681A787B681A707B6801337B603B68B1
:1028F00001333B603B681B78002BF1D17B680022E1
:102900001A70FB6818461437BD465DF8047B7047A3
:1029100090B484B000AFF860B9607A60002413E02E
:10292000FB681A78BB68591CB9601B78D31ADBB2F4
:102930005CB2002C0BD1FB685A1CFA601B78002B90
:1029400005D07B68013B7B607B68002BE8D1234688
:1029500018461037BD4690BC704780B483B000AFB6
:102960007860396005E07B6801337B603B68013348
:102970003B607B681B78002B05D07B681A783B682E
:102980001B789A42EFD07B681B781A463B681B780D
:10299000D31A18460C37BD465DF8047B704780B4E7
:1029A00085B000AF78607B68FB6002E0FB680133B4
:1029B000FB60FB681B78002BF8D1FA687B68D31AA0
:1029C00018461437BD465DF8047B704780B584B067
:1029D00000AF78607868FFF7E2FF03460133FB60E1
:1029E000F86800F03DFDB860BB68002B01D1002302
:1029F00005E0FA687968B868FFF733FEBB681846E7
:102A00001037BD4680BDFFFF80B582B002AF0B48D6
:102A100000F05CFC0A4800F059FC0A4B01930A4B99
:102A20000093002301220421084800F04FFC0848CD
:102A300000F04CFC00BFBD4680BD00BFC85703007E
:102A4000D45703001C58030028580300F85703000C
:102A50003458030080B485B000AF786039603B68BB
:102A60000A2B17D17B681B681946134BA3FB012364
:102A7000DA0813469B0013445B00CA1AFA607B68AD
:102A80001B681A460C4BA3FB0223DB081A467B6823
:102A90001A600AE07B681B6803F00F03FB607B6829
:102AA0001B681B091A467B681A60FB6818461437B6
:102AB000BD465DF8047B7047CDCCCCCC90B482B0E1
:102AC00000AF786000240DE023469B0023445B00A8
:102AD00018467B681B68591C7A6811601B78034490
:102AE000A3F130047B681B681B78303B092BEBD9C2
:102AF000234618460837BD4690BC7047B0B58CB029
:102B000000AFF860B9607A603B607B6CBB623C6C84
:102B1000BB6C03F04003002B01D06D4B00E06D4B0C
:102B20007B62BB6C03F01003002B03D0BB6C23F063
:102B30000103BB64BB6C03F00103002B01D0302305
:102B400000E0202387F82330002387F82F30BB6C68
:102B500003F00203002B1AD07B68002B06DA2D232A
:102B600087F82F307B685B427B6010E0BB6C03F022
:102B70000403002B03D02B2387F82F3007E0BB6C16
:102B800003F00803002B02D0202387F82F30002504
:102B90007B68002B19D12B465D1C07F130021344D2
:102BA000302203F8202C13E03B1D39681846FFF74C
:102BB00051FF03461A467B6A1A442B465D1C127865
:102BC00007F130010B4403F8202C7B68002BEBD17C
:102BD0007B6C9D4200DD7D647B6CE41ABB6C03F072
:102BE0001103002B15D197F82F30002B0DD0002C9E
:102BF0000BDD013C09E0FA68BB689A4202D2FB682F
:102C000020221A70FB680133FB6023465C1E002BF8
:102C1000F1DC97F82F30002B0BD0FA68BB689A4292
:102C200003D2FB6897F82F201A70013CFB68013330
:102C3000FB60BB6C03F01003002B1AD10AE0FA68AA
:102C4000BB689A4203D2FB6897F823201A70FB688E
:102C50000133FB6023465C1E002BF0DC09E0FA68C0
:102C6000BB689A4202D2FB6830221A70FB680133BB
:102C7000FB607B6C5A1E7A649D42F0DB0DE0FA68C3
:102C8000BB689A4206D207F130032B4413F8202C7C
:102C9000FB681A70FB680133FB602B465D1E002B3E
:102CA0000DDDBB6A002BEAD109E0FA68BB689A42E5
:102CB00002D2FB6820221A70FB680133FB602346B6
:102CC0005C1E002BF1DCFB6818463037BD46B0BDFA
:102CD000D0580300E458030080B592B004AFF86008
:102CE000B9607A603B60FB68BB62FA68BB681344FA
:102CF0007B627A6AFB689A4280F026824FF0FF334B
:102D00007B627A6AFB68D31ABB601DE27B681B7822
:102D1000252B0BD0BA6A7B6A9A4203D27B681A7859
:102D2000BB6A1A70BB6A0133BB620AE20023BB773D
:102D30007B6801337B607B681B782D2B04D1BB7FC4
:102D400043F01003BB77F3E77B681B782B2B04D190
:102D5000BB7F43F00403BB77EAE77B681B78202B3B
:102D600004D1BB7F43F00803BB77E1E77B681B78A6
:102D7000232B04D1BB7F43F02003BB77D8E77B68CC
:102D80001B78302B04D1BB7F43F00103BB77CFE727
:102D900000BF4FF0FF33BB617B681B78303B092BD2
:102DA00005D83B1D1846FFF789FEB86115E07B6822
:102DB0001B782A2B11D17B6801337B603B681A1D7D
:102DC0003A601B68BB61BB69002B06DABB695B42DA
:102DD000BB61BB7F43F01003BB774FF0FF337B61D8
:102DE0007B681B782E2B1ED17B6801337B607B6850
:102DF0001B78303B092B05D83B1D1846FFF75EFEBC
:102E000078610BE07B681B782A2B07D17B68013344
:102E10007B603B681A1D3A601B687B617B69002BF5
:102E200001DA00237B6100237B777B681B78682BAA
:102E300003D07B681B786C2B05D17B681B787B7774
:102E40007B6801337B600A23FB777B681B78252B2B
:102E500000F00881252BC0F21F81782B00F31C8124
:102E6000582BC0F21981583B202B00F2158101A28A
:102E700052F823F0813000009930000099300000B2
:102E8000993000009930000099300000993000001E
:102E9000993000009930000099300000993000000E
:102EA000F92E00008F3000009930000099300000AA
:102EB00099300000993000008F30000099300000F8
:102EC00099300000993000009930000099300000DE
:102ED0007B3000002D300000993000009930000058
:102EE000672F000099300000D530000099300000B5
:102EF0009930000089300000BB7F03F01003002BE5
:102F000010D109E0BA6A7B6A9A4202D2BB6A2022D7
:102F10001A70BB6A0133BB62BB69013BBB61BB6911
:102F2000002BEFDC3B681A1D3A601B68FB74BA6A21
:102F30007B6A9A4202D2BB6AFA7C1A70BB6A01337E
:102F4000BB6209E0BA6A7B6A9A4202D2BB6A20225B
:102F50001A70BB6A0133BB62BB69013BBB61BB69D1
:102F6000002BEFDCEDE03B681A1D3A601B683B620A
:102F70003B6A002B01D1824B3B620023FB6202E0E3
:102F8000FB6A0133FB62FA6ABB699A4205D0FB6AAD
:102F90003A6A13441B78002BF2D17B69002B05DDC4
:102FA000FA6A7B699A4201DD7B69FB62BB7F03F0B1
:102FB0001003002B10D109E0BA6A7B6A9A4202D250
:102FC000BB6A20221A70BB6A0133BB62BB695A1EFE
:102FD000BA61FA6A9A42EFDB00233B6310E0BA6AF7
:102FE0007B6A9A4203D23B6A1A78BB6A1A70BB6A40
:102FF0000133BB623B6A01333B623B6B01333B6392
:103000003A6BFB6A9A42EADB09E0BA6A7B6A9A4247
:1030100002D2BB6A20221A70BB6A0133BB62BB6951
:103020005A1EBA61FA6A9A42EFDB8AE0BB69B3F1D1
:10303000FF3F05D10823BB61BB7F43F00103BB7792
:103040003B681A1D3A601B681A46BB7F02937B6976
:103050000193BB6900931023796AB86AFFF74EFDAC
:10306000B8626EE0BA6A7B6A9A4202D2BB6A2522D3
:103070001A70BB6A0133BB6263E00823FB772AE066
:10308000BB7F43F04003BB771023FB7723E0BB7F7C
:1030900043F00203BB771DE0BA6A7B6A9A4202D210
:1030A000BB6A25221A70BB6A0133BB627B681B783E
:1030B000002B0BD0BA6A7B6A9A4203D27B681A78DB
:1030C000BB6A1A70BB6A0133BB623AE07B68013BA2
:1030D0007B6036E000BF7B7F6C2B09D13B681A1DFB
:1030E0003A601B687B63BB7F03F00203002B1AE08E
:1030F0007B7F682B0ED13B681A1D3A601B689BB220
:103100007B63BB7F03F00203002B0CD07B6B1BB2F5
:103110007B6308E03B681A1D3A601B687B63BB7FDA
:1031200003F00203002B7A6BF97FBB7F02937B696C
:103130000193BB6900930B46796AB86AFFF7DEFC1E
:10314000B8627B6801337B607B681B78002B7FF45F
:10315000DDADBB68002B0BD0BA6A7B6A9A4203D202
:10316000BB6A00221A7003E07B6A013B00221A70DE
:10317000BA6AFB68D31A18463837BD4680BD00BF0F
:10318000605803000CB480B584B000AF786039603B
:1031900007F11C03BB60BB68BA6939687868FFF740
:1031A0009BFDF860FB6818461037BD46BDE88040BF
:1031B00002B0704780B584B000AFF860B9607A6043
:1031C0007B68BA684FF0FF31F868FFF785FD03466A
:1031D00018461037BD4680BD0EB480B585B000AF2F
:1031E000786007F12003BB60BA68F9697868FFF777
:1031F000E1FFF860FB6818461437BD46BDE8804023
:1032000003B0704780B400AF034B1B681846BD463F
:103210005DF8047B704700BFC00B002080B584B010
:1032200000AF7860124B1B68FB607868FDF7C6FD45
:10323000B860BA68FB689A4201D1002313E0BB680A
:10324000002B0FD00A4B1B68002B04D0084B1B68C7
:103250001846FDF745FE4321B868FDF7BDFD044A59
:10326000BB681360FB6818461037BD4680BD00BFC1
:10327000C00B002080B483B000AF786000BF0C3773
:10328000BD465DF8047B704790B583B000AF7860B1
:103290007B68002B13D00C4B1B68002B03D1786884
:1032A000FFF7E8FF0CE0084B1C687868FFF777FB36
:1032B00003467A6800212046FDF7A4FE00E000BF27
:1032C0000C37BD4690BD00BFC00B00200FB480B5C9
:1032D00082B000AF07F114033B603B683A697F217D
:1032E0001048FFF7F9FC03467B607B687F2B01D910
:1032F0007F237B600C4B1B68002B03D10948FFF731
:10330000B9FF06E0084B18687B68064A0021FDF704
:1033100079FE7B6818460837BD46BDE8804004B09A
:10332000704700BFF80B0020C00B002080B500AF35
:10333000012203490348FEF763FB00BF80BD00BFC5
:1033400068580300CC0B002080B500AF01F00AFBE9
:103350000346002B06D04FF0FF310448FEF75AFC1D
:10336000034600E00023184680BD00BFCC0B0020C0
:1033700080B582B000AF78607B68002B05D04FF439
:10338000AC620849084800F0F9F801F0EBFA03468E
:10339000002B02D00548FEF74BFD00BF0837BD46A5
:1033A00080BD00BF0C59030070580300CC0B0020F7
:1033B00080B485B000AFF860B9607A60FB68002B1C
:1033C00004D00D4B1B68DA69FB681A60BB68002BE0
:1033D00004D0094B1B681A6ABB681A607B68002B13
:1033E00004D0054B1B685A6A7B681A6000BF14370B
:1033F000BD465DF8047B7047F00B002080B584B0BB
:1034000000AF786039607B68033323F00303FB600F
:103410003B6823F00303BB60BA68FB689A4205D897
:1034200040F2B6520A490B4800F0A8F8BA68FB68A7
:10343000D31A1A467968084800F042F90346074A49
:103440001360FFF773FF00BF1037BD4680BD00BF9C
:10345000F85803008058030068580300F00B002060
:1034600080B584B000AF7860FFF76EFFF8600C4B5A
:103470001B687968184600F0A5F9B860F868FFF78E
:1034800077FF084B1B68002B04D0064B1B6879683C
:10349000B8689847BB6818461037BD4680BD00BF66
:1034A000F00B0020C40B002080B584B000AF786022
:1034B0003960FFF749FFF860074B1B683A68796885
:1034C000184600F0B3FAB860F868FFF751FFBB6820
:1034D00018461037BD4680BDF00B002080B584B083
:1034E00000AF786039607B683A6802FB03F31846E6
:1034F000FFF7B6FFF860FB68002B08D07B683A68DE
:1035000002FB03F31A460021F868FFF74FF8FB6847
:1035100018461037BD4680BD80B584B000AF7860D6
:103520000A4B1B68002B03D0084B1B687868984730
:10353000FFF70AFFF860786800F062FBF868FFF7B1
:1035400017FF00BF1037BD4680BD00BFC80B00206D
:1035500080B586B000AFF860B9607A60FFF7F4FE1E
:1035600078617A68B968F868FFF722FF7869FFF731
:10357000FFFE00BF1837BD4680BDFFFF80B586B097
:1035800000AFF860B9607A600023FB750C4B1B68D4
:10359000002B0BD17B68BA68F9680A48FFF796FEE2
:1035A00000BFFB7DDBB2002BFBD005E0044B1B68AA
:1035B0007A68B968F868984700BF1837BD4680BD7B
:1035C000F40B00209858030080B584B000AF7860F9
:1035D00039607B689B6A3A689A4204D282223549F4
:1035E0003548FFF7CBFF7B68DB6A3A689A4204D321
:1035F000832230493148FFF7C1FF7B689A6A3B68F4
:103600005B681344FB603A68FB689A4224D0FB680D
:103610001B6803F00103002B1ED17B68DB6AFA688C
:103620009A4219D07B681B6BFA689A4202D17B6878
:103630003A681A63FB6800221A60FB685A683B68A4
:103640005A607B689B6A3A68D11A7B689A6AFB6801
:103650005B6813440A469A607B689A6A3B689B6879
:103660001344BB60BA683B689A421FD0BB681B68B2
:1036700003F00103002B19D17B681B6B3A689A4257
:1036800002D17B68BA681A633B6800221A603B6803
:103690005A68BB685A607B689B6ABA68D11A7B68B3
:1036A0009A6A3B685B6813440A469A6000BF103709
:1036B000BD4680BD385D03001C590300405903001E
:1036C00080B58AB000AFF860B9607A60BB68033338
:1036D00023F003037B627B6A38333B623B6A03332C
:1036E00023F00303FB61BA687B68134423F00303F0
:1036F000BB61BB69182B53D9BB69183B3A6A9A4224
:103700004ED8BA69FB69D31A183B7B613822002175
:10371000786AFEF74BFF7B6AFA680C21184600F0C6
:1037200067FB7B6A254A5A617B6AFA699A617B6A00
:103730007A69DA617B6A7A695A63FA697B6A9A62A2
:103740007B6A9B6A3B617B6A23F001023B691A60DA
:103750007B6A5B6B03F10C023B695A603B69002298
:103760009A607B6A9A6A3B695B681A447B6ADA6290
:103770007A6A7B6ADB6A42F001021A607B6A5A6BE2
:103780007B6ADB6A0C325A607B6A5A6B7B6ADB6A43
:103790000C329A607B6A9A6A7B6A1A637B6A08E0D9
:1037A000B968BA687B6813441A460548FFF78EFD6E
:1037B000002318462837BD4680BD00BF705903005E
:1037C0007859030080B588B000AF786039603B68F5
:1037D000002B01D1002315E17B68002B05D14FF4AC
:1037E00090728A498A48FFF7C9FE7B68184600F044
:1037F0005BFC03460C2B05D040F22112834985481F
:10380000FFF7BCFE7B68184600F030FC0346002B37
:1038100005D14FF491727D497F48FFF7AFFE7B6879
:10382000BB613B68033323F003033B60BB695B6B05
:103830003A689A4201D90023E4E03B680B2B01D897
:103840000C233B60BB691A6BBB699B6AD31AFB6193
:10385000CFE0BB699A6AFB6913447B617B691B6893
:1038600003F00103002B40F0BE807B695A68FB69BE
:10387000D31A0C3B3A689A4200F2B5807B695A68C9
:10388000FB69D31AA3F10C023B6818339A4239D36F
:10389000FA693B6813440C333B61BB699A6A3B6924
:1038A0001344FB60BB6923F00102FB681A607B696B
:1038B0005A68FB685A60FB68FA699A607B693A69E2
:1038C0005A60FB685A68BB695B6B0C339A4206D03E
:1038D000BB699A6AFB685B6813443A699A60BB6982
:1038E0001A6A3B68134403F10C02BB691A62BB6994
:1038F0005A6ABB691B6A9A421AD2BB691A6ABB69C7
:103900005A6215E0BB691A6A7B695B68B969896AA2
:103910007869411A5B1A1A44BB691A62BB695A6A10
:10392000BB691B6A9A4203D2BB691A6ABB695A62B5
:10393000BB6943F001027B691A60BB691B6B7A6942
:103940009A4228D107E0BB699A6ABB691B6B5B6826
:103950001A44BB691A63BB691B6B1B6803F0010344
:10396000002B05D0BB691A6BBB69DB6A9A42EAD1AE
:10397000BB691A6BBB69DB6A9A420CD0BB691B6BD3
:103980001B6803F00103002B05D040F283121F498E
:103990002248FFF7F3FD7A693B6813440C33BA6998
:1039A000D26A934205D940F2851218491C48FFF7A4
:1039B000E5FD7B690C3303F00303002B05D04FF4C6
:1039C000C37212491748FFF7D9FD7B6903F003035F
:1039D000002B05D040F287120C491348FFF7CEFDAB
:1039E0007B690C330EE0BB699A6AFB6913445B6820
:1039F000FB61BB695A6B3B68D31AFA699A427FF63E
:103A000028AF002318462037BD4680BD445D030023
:103A1000B4590300C4590300005A0300285A030094
:103A2000785A0300C85A0300145B030080B58CB0B9
:103A300000AFF860B9607A60FB68002B05D14FF4E5
:103A4000D57268496848FFF799FDFB68184600F091
:103A50002BFB03460C2B05D040F2AB1261496348A7
:103A6000FFF78CFDFB68184600F000FB0346002BB7
:103A700005D14FF4D6725B495D48FFF77FFDFB68C7
:103A8000FB627B68033323F003037B60FB6A5B6BA1
:103A90007A689A4201D900239FE07B68002B04D109
:103AA000B86800F0ADF8002397E0BB68002B06D1A2
:103AB000FB6A79681846FFF785FE03468DE0BB6810
:103AC00003F00303002B05D040F2C11245494948D9
:103AD000FFF754FDFB6A9B6ABA689A4205D24FF41D
:103AE000E17240494448FFF749FDFB6ADB6ABA6866
:103AF0009A4205D340F2C3123A494048FFF73EFDCF
:103B0000BB680C3BBB62FB6A9B6ABA6AD31A7B62D6
:103B1000BB6A5A687B6AD31A0C3B3B623A6A7B6881
:103B20009A4201D1BB6858E07B6818333A6A9A42DE
:103B30003CD9FB6A1A6A79683B6ACB1A1A44FB6A59
:103B40001A627A6A7B6813440C33BB61FB6A9A6A17
:103B5000BB6913447B61FB6A23F001027B691A6035
:103B6000BB6A5A687B695A607B697A6A9A60BB6AE9
:103B7000BA695A607B695A68FB6A5B6B0C339A427C
:103B800006D0FB6A9A6A7B695B681344BA699A60DB
:103B9000FB6A1B6B7A699A4202D2FB6A7A691A63E2
:103BA0007969F86AFFF710FDBB6816E0FB6A79686F
:103BB0001846FFF707FEF861FB69002B0CD07A6806
:103BC0003B6A934228BF13461A46B968F869FEF764
:103BD00048FDB86800F014F8FB6918463037BD4658
:103BE00080BD00BF545D0300B4590300C4590300F5
:103BF000005A0300445B0300745B0300AC5B0300EA
:103C000080B584B000AF78607B68002B00F08380C3
:103C10007B6803F00303002B05D04FF40272404988
:103C20004048FFF7ABFC7B680C3BFB60FB681B6804
:103C300023F00103BB60BB68002B05D14FF4057274
:103C400037493948FFF79AFCFB681B6803F001030A
:103C5000002B05D140F2152231493448FFF78EFC84
:103C6000BB68184600F020FA03460C2B05D040F242
:103C700016222B492E48FFF781FCBB68184600F03E
:103C8000F5F90346002B05D140F2172224492948B3
:103C9000FFF774FCBB689B6A7A689A4204D3BB68DE
:103CA000DB6A7A689A4205D34FF406721C492248AF
:103CB000FFF764FCBB689A6AFB685B6813441B6887
:103CC00023F001031A46BB68934205D040F21A2242
:103CD00013491A48FFF752FCBB6823F00102FB6846
:103CE0001A60BB681B6BFA689A4202D2BB68FA681A
:103CF0001A63BB681A6ABB689B6AF968CB1A1946D3
:103D0000FB685B68CB1A1A44BB681A62F968B8682A
:103D1000FFF75AFC00E000BF1037BD4680BD00BF72
:103D2000645D0300445B0300E45B0300FC5B030091
:103D30000C5C0300545C03008C5C0300005D03001A
:103D400080B483B000AF786039607B681B683A68E4
:103D50005A607B681A683B681A607B683A681A6028
:103D60003B687A685A6000BF0C37BD465DF8047B3B
:103D7000704780B483B000AF78607B681B687A6856
:103D800052685A607B685B687A6812681A607B6860
:103D90007A685A607B685A687B681A6000BF0C3783
:103DA000BD465DF8047B704780B485B000AF034624
:103DB000FB710023FB600FE00C4AFB681B011344FE
:103DC0001B78FA799A4204D1FB681B01074A134415
:103DD00006E0FB680133FB60FB68082BECDD002389
:103DE00018461437BD465DF8047B704788010020F3
:103DF00090B589B000AFF8600B467A60FB72002383
:103E0000FB61FB7A1846FFF7CFFFB861BB69002B57
:103E100005D14FF4AB7225492548FFF7AFFB00F001
:103E200009FCBB695B68FB6112E0FB690C3B7B61D1
:103E30007B69002B09D07A69FB689A4205D14FF45F
:103E4000B3721A491B48FFF799FBFB691B68FB61BA
:103E5000BB690433FA699A42E7D100F001FCFB7AAE
:103E600063F07F03DAB2FB681A72FB680822796894
:103E70001846FEF7FBFC104B1B68002B03D00E4BC3
:103E80001B68F868984701F02BFD0446BB691A1DB2
:103E9000FB680C3319461046FFF752FF204601F02D
:103EA00023FD00BF2437BD4690BD00BF085E030060
:103EB000745D03008C5D0300780C002090B583B026
:103EC00000AF78607B68002B05D140F293120F4958
:103ED0000F48FFF753FB0F4B1B68002B03D00D4B14
:103EE0001B68786898477B6800221A7201F0F8FC1A
:103EF00004467B680C331846FFF73BFF204601F071
:103F0000F3FC00BF0C37BD4690BD00BF185E030038
:103F10009C5D03007C0C002090B587B000AF034689
:103F20003960FB7101F0DCFC7861FEF7F1FA0346C1
:103F3000002B09D029492A48FFF7C8F940F2B712E7
:103F400026492848FFF71AFB786901F0CDFCFB7978
:103F50001846FFF729FF38613B69002B05D140F275
:103F6000BB121E492048FFF709FB3B69DB68184676
:103F7000FFF776FAF860FB68002B01D1002329E0F7
:103F80003B69DB681A460021F868FEF70FFBFB6807
:103F9000FA791A72FB6800225A72FB6808223968A3
:103FA0001846FEF763FC114B1B68002B03D00F4B28
:103FB0001B68F868984701F093FC04463B691A1D9A
:103FC000FB680C3319461046FFF7BAFE204601F095
:103FD0008BFCFB6818461C37BD4690BD2C5E030069
:103FE000B05D0300D85D0300745D0300780C002011
:103FF00090B583B000AF78607B68002B05D140F2AC
:10400000F51216491648FFF7B9FA7B681B7A5BB2BE
:10401000002B05DA4FF4FB7210491248FFF7AEFA95
:10402000114B1B68002B03D00F4B1B687868984717
:104030007B6800221A7201F053FC04467B680C3343
:104040001846FFF796FE204601F04EFC7868FFF711
:1040500063FA00BF0C37BD4690BD00BF405E030051
:104060009C5D0300DC5D03007C0C002080B582B009
:1040700000AF78607B68002B05D14FF406720849C9
:104080000848FFF77BFA7B681B7A5BB2002B01DAEA
:10409000012300E0002318460837BD4680BD00BF5D
:1040A000545E03009C5D030080B582B000AF786071
:1040B0007B68002B05D140F22B2206490648FFF70A
:1040C0005DFA7B681B7A03F07F03DBB21846083782
:1040D000BD4680BD705E03009C5D030080B586B068
:1040E00000AF78600B46FB7000233B6100237B61CF
:1040F0000023FB60FB781846FFF756FEF8607B68EC
:10410000002B02D0FB68002B01D1002335E001F029
:10411000E7FBB860FEF7FCF90346002B09D019490C
:104120001948FFF7D3F840F2492216491748FFF71C
:1041300025FAB86801F0D8FB00F07CFAFB685B68F0
:104140007B6112E07B690C3B3B613B69082279682B
:104150001846FEF7DDFB0346002B03D100F080FA82
:104160003B690AE07B691B687B61FB6804337A6901
:104170009A42E7D100F074FA002318461837BD467A
:1041800080BD00BF845E0300B05D0300D85D030006
:1041900080B483B000AF78607B687A685A607B68CF
:1041A0005A687B681A6000BF0C37BD465DF8047B17
:1041B000704780B483B000AF786039607B685B681B
:1041C0003A681A607B685A683B685A607B683A684C
:1041D0005A603B687A681A6000BF0C37BD465DF8CC
:1041E000047B704780B483B000AF78607B681B6845
:1041F0007A6852685A607B685B687A6812681A60ED
:104200007B687A685A607B685A687B681A6000BF6E
:104210000C37BD465DF8047B704780B483B000AFB7
:1042200078607B681B687A689A420CBF0123002380
:10423000DBB218460C37BD465DF8047B7047FFFFC4
:1042400080B584B000AF78607B68002B04D15F221A
:104250001C491D48FFF792F97B689B6A1B78232B4A
:1042600011D17B68DB691A467B689B6A9A420AD93E
:104270007B68DB691A467B689B6A19467B68DB6A48
:104280000B449A420CD97B6819461048FFF71EF878
:1042900001F026FB0346FB60FB68002BFCD10DE020
:1042A0007B68DB691A467B689B6A20339A4205D893
:1042B0007B6819460648FFF709F8FFE700BF10378B
:1042C000BD4680BDFC5E0300945E0300A85E030053
:1042D000C45E0300B0B582B000AF7860094B1B68C4
:1042E000184601F003FE0346013B1C46064B53F8FB
:1042F0003430A3F114057B681C602B461846083740
:10430000BD46B0BD8C0D00208C0C002098B500AFD0
:10431000094B00221A80002406E0E300074A1344F8
:104320001846FFF735FF01341F2CF6DD044B002241
:104330001A6000BF98BD00BF900D00208C0C0020BB
:104340008C0D002090B583B000AF3B1D1846FFF7E1
:10435000C1FF0446084B1C60204600F033F90323DC
:1043600084F8343004F11C03184601F006FB00BF4A
:104370000C37BD4690BD00BF940D002080B586B0BF
:1043800000AF01F0ADFAF8605C4BB3F90030002BE0
:1043900040F0AC805A4B1B68002B00F0A780002334
:1043A0003B613B1D1846FFF795FF7861554B1B6835
:1043B00093F8343003F00703032B2CD1514B1B68C7
:1043C00093F835301A467B689A4203D24D4B1B68EE
:1043D0007B6115E04B4B1B6893F835301A467B68C0
:1043E0009A420BD1474B1B6893F8343003F0080313
:1043F000002B03D1434B1B687B6101E001233B6130
:10440000404B1B6893F834203E4B1B6822F0080297
:10441000D2B283F834203B4B1B687A699A4250D061
:104420007B68DAB2384B1A70364B1B68BB60354A72
:104430007B691360354B1B68002B04D0334B1B6822
:104440007969B86898473B69002B02D0B86800F0DA
:1044500063F8786900F0B6F87B6993F834305BB2A2
:1044600023F007035BB243F003035BB2DAB27B696C
:1044700083F834207869FFF7E3FE254B1B78DBB225
:10448000002B14D1234B1B68002B03D0214B1B683E
:10449000B8689847BB681C331A467B691C331946B9
:1044A000104601F024FAF86801F01EFA22E0BB6819
:1044B0001C331A467B691C331946104601F017FA63
:1044C00014E0104B1B68184600F07CF80D4B1B687D
:1044D00093F834305BB223F007035BB243F003037D
:1044E0005AB2084B1B68D2B283F83420F86801F046
:1044F000FBF900BF1837BD4680BD00BF900D0020FE
:104500008C0D0020940D0020980D00209C0D0020A3
:10451000B80B0020A00D002090B583B000AF7860EC
:104520007B68002B05D140F2D22221492148FFF7B8
:1045300025F801F0D5F904461F4B1B687A689A42AA
:104540000ED17B6893F834305BB223F007035BB283
:1045500043F003035BB2DAB27B6883F8342020E0D7
:104560007B6893F834305BB223F007035BB243F00F
:1045700001035BB2DAB27B6883F834207B6893F87E
:104580003530DB000D4A1A447B6814331946104657
:10459000FFF70FFE7B689A6B094B1B681343084AB1
:1045A0001360204601F0A0F900BF0C37BD4690BD56
:1045B000185F0300945E0300940D00208C0C002013
:1045C0008C0D002090B583B000AF78607B68002B25
:1045D00005D140F2333213491348FEF7CFFF01F003
:1045E0007FF904467B6814331846FFF7FBFD7B68B0
:1045F00093F83530DB000D4A13441846FFF70DFEE3
:104600000346002B07D07B689B6BDA43084B1B6883
:104610001340074A1360204601F066F900BF0C37CB
:10462000BD4690BD345F0300945E03008C0C0020F7
:104630008C0D002098B500AF01F052F90446074BED
:10464000B3F900309BB201339BB21AB2034B1A800C
:10465000204601F049F900BF98BD00BF900D002031
:1046600098B500AF01F03CF90446104BB3F90030A7
:104670009BB2013B9BB21AB20C4B1A800B4BB3F9A5
:104680000030002B0CDC094B00221A80204601F080
:104690002BF9074B1B68002B05D0FFF76FFE02E0DC
:1046A000204601F021F900BF98BD00BF900D002009
:1046B000940D002080B400AF044BB3F900309BB2DE
:1046C0001846BD465DF8047B704700BF900D002082
:1046D00080B483B000AF78607B687A685A607B688A
:1046E0005A687B681A6000BF0C37BD465DF8047BD2
:1046F000704780B483B000AF78607B681B687A68CD
:1047000052685A607B685B687A6812681A607B68D6
:104710007A685A607B685A687B681A6000BF0C37F9
:10472000BD465DF8047B704790B583B000AF00F0E4
:1047300019F9786001F0D4F804467868FFF742FF71
:104740007B684C33184600F0E3FC7B68042283F856
:1047500034207868FCF72CFD204601F0C5F8FFF7FF
:104760000DFE00BF0C37BD4690BDFFFF90B585B074
:1047700000AF78607B68FB60FB68002B04D1872268
:1047800019491A48FEF7FAFEFB6893F8343003F033
:104790000703022B04D0882213491548FEF7EEFECA
:1047A000F868FFF781FC0346012B04D089220E49EB
:1047B0001048FEF7E3FE01F093F80446FB686FF043
:1047C00001021A63FB6814331846FFF792FFF8687A
:1047D000FFF7A2FE204601F087F8FFF7CFFD00BFEC
:1047E0001437BD4690BD00BFF0600300505F03006A
:1047F000645F0300A05F030080B586B002AFF8607D
:10480000B9607A603B60FB6814331846FFF760FFBD
:10481000FB687A681A62FB683A685A62FB68BA6990
:104820009A62FB68FA69DA62FB68986AFB68DB6A7D
:104830001A462321FDF7BAFEFB68186AFB68596A1D
:10484000FB689A6AFB68DB6A043B1A44244B01F05C
:10485000E5F80246FB68DA6197F820301F2B04D98F
:10486000BE2220492048FEF789FEFB6897F82020E9
:1048700083F83520FB6800229A63FB680022DA6324
:10488000FB68002283F84020FB687A6A5A64FB6860
:104890007A6A9A64FB6800221A63FB68002283F834
:1048A0003420FB6800229A67FB680022DA67FB6805
:1048B00003F14C00F9680023019300230093FB6887
:1048C0000A4A00F0E7FB0A4B1B68002B03D0084B99
:1048D0001B68F8689847002318461037BD4680BD0E
:1048E0002947000000610300E45F03006D470000FA
:1048F000AC0D002080B588B004AFF860B9607A6074
:104900003B60FB68002B05D140F23112124913487D
:10491000FEF734FEBB69002B05D14FF499720E49A6
:104920000F48FEF72BFEBA680121F868FFF760FA1E
:104930007B6A039397F820300293FB690193BB696C
:1049400000933B687A68B968F868FFF755FF03463B
:1049500018461037BD4680BD10610300505F03004C
:104960000860030080B400AF034B1B681846BD46C7
:104970005DF8047B704700BF940D002080B582B0C5
:1049800000AF78607B68002B05D14FF4B2721C49F0
:104990001C48FEF7F3FD7B6893F8343003F00703FF
:1049A000002B05D040F2651215491748FEF7E6FDC9
:1049B0007868FFF779FB0346012B05D04FF4B372FB
:1049C0000F491248FEF7DAFD7B6893F835301A4636
:1049D000012393401A467B689A637B68022283F81E
:1049E0003420786800F03EFAFFF7BCFF0346002B46
:1049F00001D0FFF7C3FC002318460837BD4680BD31
:104A000020610300505F030020600300A05F0300EB
:104A100080B584B000AF78607B68002B05D140F290
:104A20008F1223492348FEF7A9FD7868FFF73CFB66
:104A30000346012B05D04FF4C8721D491E48FEF7EE
:104A40009DFD7868FFF712FB0346002B05D140F26D
:104A5000911217491948FEF791FD7B6893F834309D
:104A600003F00703042B01D100231CE07B6893F8BB
:104A7000343003F00703002B02D07868FFF7A2FD63
:104A800000F02EFFF8607B684C33184600F040FBC6
:104A90007B68042283F834207868FCF789FBF86887
:104AA00000F022FF002318461037BD4680BD00BF2E
:104AB00034610300505F0300A05F030058600300EF
:104AC00080B58AB004AFF860B9607A603B60F9687D
:104AD0000120FFF721FA78617B69002B01D10023C7
:104AE0001BE03868FEF7BCFC38613B69002B04D141
:104AF0007869FFF77DFA00230FE07B6A039397F84C
:104B0000203002933B6801933B6900937B68BA684D
:104B1000F9687869FFF770FE7B6918461837BD465B
:104B200080BDFFFF80B584B000AF78607B68002B4C
:104B300005D14FF4FB7223492348FEF71FFD786827
:104B4000FFF7B2FA0346012B05D040F2F7121D49D8
:104B50001E48FEF713FD7868FFF788FA0346002B1E
:104B600005D04FF4FC7217491948FEF707FD7B6822
:104B700093F8343003F00703042B01D100231CE029
:104B80007B6893F8343003F00703002B02D0786879
:104B9000FFF718FD00F0A4FEF8607B684C33184660
:104BA00000F0B6FA7B68042283F834207868FCF7BA
:104BB000FFFAF86800F098FE002318461037BD464B
:104BC00080BD00BF48610300505F0300A05F030089
:104BD0008860030090B585B000AF7860FFF7C2FE33
:104BE000F860FB68002B05D140F23F221B491C48AE
:104BF000FEF7C4FCF868FFF757FA0346012B05D00F
:104C00004FF4107215491748FEF7B8FC00F068FE23
:104C10000446FB6800221A63F86800F0BFF8FB68DE
:104C20004C333A1D0021184600F050FCFB684C3311
:104C3000184600F0EFFA204600F056FEFFF79EFB04
:104C4000FB681B6B13F1020F02D1FB6800221A6391
:104C5000FB681B6B18461437BD4690BD5C610300B2
:104C6000505F0300A05F030080B582B000AF7860A2
:104C70007868FFF7AFFF034618460837BD4680BD8A
:104C800080B584B000AF78607868FBF721FFF860EA
:104C9000F868FFF79FFF034618461037BD4680BDF2
:104CA00090B587B000AFF860B9607A60FB68002B00
:104CB00005D140F2D52236493648FEF75FFCF86848
:104CC000FFF7F2F90346012B05D040F2D622304916
:104CD0003148FEF753FCBB68022B09D0BB68022B9E
:104CE0004FDCBB68002B34D0BB68012B36D048E0CA
:104CF00000F0F6FD0446FB6893F8343003F0070338
:104D0000012B14D1F868FFF75DFC7B681A78FB680B
:104D100083F83520FB6893F835301A460123934019
:104D20001A46FB689A63F868FFF7F6FB0DE07B68AC
:104D30001A78FB6883F83520FB6893F835301A46FB
:104D4000012393401A46FB689A63204600F0CCFD8D
:104D500018E0F868FFF712FE034614E0F868FFF762
:104D600085F90346012B04D1F868FFF751FE7861FD
:104D700003E0F868FFF7D6FE7861FFF7FFFA7B697A
:104D800001E000BF002318461C37BD4690BD00BFA0
:104D90006C610300505F0300A05F030090B583B017
:104DA00000AF78607B68002B05D140F24B32284978
:104DB0002848FEF7E3FB7868FFF776F90346012BF6
:104DC00005D04FF4537222492348FEF7D7FBFFF773
:104DD000C9FD02467B68934205D040F24D321C4922
:104DE0001E48FEF7CBFB7B6893F8343003F00704D2
:104DF000012C04D0032C02D04FF0FF3324E000F04C
:104E00006FFD04467868FFF7DDFB7B6893F834306C
:104E10005BB223F007035BB243F002035BB2DAB28A
:104E20007B6883F834207B684C33184600F004FB21
:104E3000204600F059FD0A4B1B68002B03D0084B9D
:104E40001B6878689847002318460C37BD4690BD0C
:104E500080610300505F0300A05F0300D460030083
:104E6000A40D002090B583B000AF78607B68002B64
:104E700005D140F279321D491D48FEF77FFB786865
:104E8000FFF712F90346012B05D040F27A32174999
:104E90001848FEF773FB7B6893F8343003F0070380
:104EA000022B02D04FF0FF331BE000F019FD044647
:104EB0007B6814331846FFF71CFC7B684C3318469C
:104EC00000F0BAFA7868FFF727FB204600F00CFDE7
:104ED000094B1B68002B03D0074B1B687868984769
:104EE000002318460C37BD4690BD00BF94610300F7
:104EF000505F0300A05F0300A80D002080B483B0C2
:104F000000AF78607B687A685A607B685A687B6813
:104F10001A6000BF0C37BD465DF8047B704780B453
:104F200083B000AF786039607B681B683A685A606C
:104F30007B681A683B681A607B683A681A603B684D
:104F40007A685A6000BF0C37BD465DF8047B704735
:104F500080B483B000AF78607B681B687A68526861
:104F60005A607B685B687A6812681A607B687A6846
:104F70005A607B685A687B681A6000BF0C37BD4670
:104F80005DF8047B704780B483B000AF78607B68C5
:104F90001B687A689A420CBF01230023DBB21846D3
:104FA0000C37BD465DF8047B704780B586B000AF16
:104FB000F860B9607A603B60FB6897F820205A720D
:104FC000FB685B7A23F00103DAB2FB685A72FB6874
:104FD000BA68DA61FB687A681A62FB6800229A6232
:104FE000FB683A685A6200237B610BE07B690233FD
:104FF000DB00FA68134404331846FFF77FFF7B6930
:1050000001337B617B69002BF0DD00BF00BF1837E7
:10501000BD4680BD90B585B000AF7860396000F0C6
:105020005FFC04467868FFF7AEFF0346002B0CD107
:105030007B681B68143BFB60FB689A6A3B681A60DC
:10504000204600F051FC002304E0204600F04CFC18
:105050004FF0FF3318461437BD4690BD80B584B07D
:1050600000AF78600023FB600BE0FB680233DB00DD
:105070007A68134404331846FFF76AFFFB6801336C
:10508000FB60FB68002BF0DD00BF00BF1037BD46A2
:1050900080BDFFFF80B586B002AFF860B9607A606E
:1050A0003B60FB68002B05D140F20F1214491548F4
:1050B000FEF764FA7B68002B05D14FF48872104923
:1050C0001148FEF75BFABB696FF00042934205D3CB
:1050D00040F211120A490D48FEF750FAFB68BA680F
:1050E0000A211846FEF784FE3B7F0093BB693A68AD
:1050F0007968F868FFF759FF00BF1037BD4680BDDB
:10510000B8620300A8610300BC610300D061030022
:1051100090B583B000AF78607B68002B05D14FF469
:1051200093721B491B48FEF729FA7B681846FEF765
:10513000BBFF03460A2B05D040F22712144916483C
:10514000FEF71CFA7B681846FEF790FF0346002B1B
:1051500005D14FF494720E491048FEF70FFA00F093
:10516000BFFB04467868FFF779FF7B685B7A23F022
:105170000103DAB27B685A72204600F0B5FB7B6807
:105180001846FEF79BFE002318460C37BD4690BD1F
:10519000C8620300A8610300E86103002462030001
:1051A00080B588B002AFF860B9607A603B60BB68D8
:1051B000002B05D140F2551213491448FEF7DEF9D1
:1051C0003B686FF00042934205D34FF4AB720E4937
:1051D0000F48FEF7D3F9F9680A20FEF79DFE7861C3
:1051E0007B69002B01D1002309E097F82030009360
:1051F0003B687A68B9687869FFF7D7FE7B6918461B
:105200001837BD4680BD00BFD8620300BC610300F3
:10521000D0610300B0B588B000AF78607B68002B28
:1052200005D14FF4CC727B497B48FEF7A7F97B6828
:105230001846FEF739FF03460A2B05D040F29912B3
:1052400074497648FEF79AF9002400F049FB0546B8
:105250007868FFF703FF7B685B7A23F00103DAB21B
:105260007B685A726E4B1B68002B04D06C4B1B681A
:105270007A6810469847FBF7E1FB02467B685B6A59
:105280001A447B689A627B685B7A03F00403002B04
:1052900002D0644BBB6101E0634BBB61BB69BB6087
:1052A0000023FB6155E0FB699B0007F120021344DA
:1052B00053F8183C1B683B61FB69DB0014335B420D
:1052C0003A691344FB60FB689A6A7B689B6A9A425E
:1052D00009D0FB689A6A7B689B6AD31A6FF0004218
:1052E00093421FD300E000BFFB699B0007F120023F
:1052F000134453F8183C1A68FB699B0007F120011E
:105300000B4443F8182CFB699B0007F1200213445F
:1053100053F8182CFB69DB00B9690B445B689A42AF
:10532000C1D100E000BFFB69002B0FD0FB699B00DF
:1053300007F12002134453F8182CFB69013308329B
:105340009B0007F120010B4443F8182CFB69013343
:10535000FB61FB69002BD6D0344B1B680133334A09
:105360001360324B1B687B61BA687B681433194643
:105370001046FFF7D4FD0223FB611EE07B6903F0BA
:105380000303002B1DD1FB69C3F101039B0007F14F
:105390002002134453F8180CFB69C3F101030233D4
:1053A000DB007A68134404331946FFF7B8FD7B69C4
:1053B0009B087B61FB690133FB61FB69012BDDD934
:1053C00000E000BF7B685B7A43F00103DAB27B68E0
:1053D0005A727B685B7A03F00403002B0ED0144BE7
:1053E0001B78012B0AD1134B93F8343003F00703D9
:1053F000022B03D10F48FFF735FD0124284600F0AA
:1054000073FA002C01D0FEF7B9FF002318462037AD
:10541000BD46B0BDE8620300A8610300E861030077
:10542000840C0020B80D0020B00D00204810002092
:1054300018020020C00D002090B583B000AF786046
:105440007B68002B05D14FF404721C491C48FEF701
:1054500095F87B681846FEF727FE03460A2B05D011
:1054600040F2112215491748FEF788F87B685B7AED
:1054700003F00103002B02D14FF0FF3319E0124B70
:105480001B68002B04D0104B1B687A6810469847A5
:1054900000F026FA04467868FFF7E0FD7B685B7A47
:1054A00023F00103DAB27B685A72204600F01CFA3E
:1054B000002318460C37BD4690BD00BFF8620300BC
:1054C000A8610300E8610300880C002090B585B056
:1054D00000AFF860B9607A60FB68002B05D14FF42B
:1054E0000D7234493448FEF749F8FB681846FEF758
:1054F000DBFD03460A2B05D040F235222D492F480B
:10550000FEF73CF800F0ECF90446BB68052B47D8E1
:1055100001A252F823F000BF3B55000031550000B6
:105520005D5500006D5500007D5500009755000049
:10553000FB685A6A7B681A6033E07B681B686FF00F
:105540000042934205D340F23F221A491C48FEF71D
:1055500015F87B681A68FB685A6222E0FB685B7A80
:1055600023F00203DAB2FB685A721AE0FB685B7A36
:1055700043F00203DAB2FB685A7212E0FB685B7A0E
:1055800003F00103002B03D07B6801221A6002E0C4
:105590007B6800221A60FB689A6A7B681A6000E0E8
:1055A00000BF204600F0A0F9002318461437BD467E
:1055B00090BD00BF08630300A8610300E861030019
:1055C0008862030090B585B000AF3B461846FFF7F0
:1055D00095FCFBF733FAF86000F082F904465FE0CF
:1055E000374B1B68143BBB60BB689B6AFA68D31AD5
:1055F0006FF0004293425AD2324B1B68002B03D00B
:10560000304B1B68B8689847B868FFF727FDBB6840
:105610005B7A03F00203002B06D1BB685B7A23F0B0
:105620000103DAB2BB685A72BB6803F114023B464D
:1056300011461846FFF773FCBB68DB69BA68126A4B
:1056400010469847FBF7FAF9F8601F4B1B68002BD0
:1056500003D01D4B1B68B86898473B461846FFF7B8
:1056600092FC0346002B00D01AE0BB6814331846A6
:10567000FFF76EFCBB685B7A03F00203002B0FD0D0
:10568000BB685B7A03F00103002B09D0BB685B7A2F
:1056900023F00103DAB2BB685A72B868FFF7BAFDAB
:1056A0000748FFF770FC0346002B99D000E000BFCD
:1056B000204600F019F900BF1437BD4690BD00BF69
:1056C000B00D0020401000204410002090B585B09F
:1056D00000AF3B461846FFF711FC00F001F9044605
:1056E0006BE03D4B1B68143BFB60FBF7A7F9B86010
:1056F000FB689B6ABA68D31A6FF00042934263D288
:10570000364B1B68002B03D0344B1B68F868984756
:10571000F868FFF7A3FCFB685B7A03F00203002B39
:1057200006D1FB685B7A23F00103DAB2FB685A7298
:10573000FB6803F114023B4611461846FFF7EFFBE6
:10574000274B00221A70204600F0CEF8FB68DB6978
:10575000FA68126A10469847224B1B68002B03D048
:10576000204B1B68F868984700F0BAF804461C4BB9
:1057700001221A703B461846FFF705FC0346002B32
:1057800000D01AE0FB6814331846FFF7E1FBFB6812
:105790005B7A03F00203002B0FD0FB685B7A03F007
:1057A0000103002B09D0FB685B7A23F00103DAB216
:1057B000FB685A72F868FFF72DFD0748FFF7E3FB17
:1057C0000346002B8DD000E000BF204600F08CF88F
:1057D00000BF1437BD4690BDB80D0020401000201A
:1057E000180200204410002080B584B000AF78601B
:1057F00007F1080319461248FFF70CFC0346002B7B
:1058000008D0FFF7AFF803461846FFF7C7FAFEF7D0
:10581000B5FD11E0FBF712F9F860BA68FB68D31A1E
:105820006FF00042934207D2BA68FB68D31ABB609C
:10583000BB681846FFF718FAFFF748FFD8E700BF24
:10584000B80D002080B582B000AF00237B6009E076
:105850007B68DB00074A13441846FFF74FFB7B6861
:1058600001337B607B68002BF2D000BF00BF08379C
:10587000BD4680BDB00D002080B586B004AF0023CA
:105880007B6009E07B68DB00104A13441846FFF791
:1058900035FB7B6801337B607B68002BF2D00A23E9
:1058A0000393042302934FF400730193084B009376
:1058B0000023084A08490948FFF71CF80748FFF782
:1058C0005DF800BF0837BD4680BD00BFB80D0020A1
:1058D000400E0020E9570000B0620300C00D002018
:1058E000EFF3108072B6704780F310887047444A17
:1058F0001368012B04D04FF001031360414A10607C
:10590000414A116041484FF0805101607047EFF308
:10591000108272B63A48016851B34FF0000101603D
:105920003848016891B1EFF309811EF0100F08BFEC
:1059300021ED108B21E9F00F4FF000041EF0100F45
:1059400008BF012441F8044D006801602E49096830
:10595000096808C9B1E8F00F002B18BFB1EC108B33
:1059600081F309884EF0100E002B18BF2EF0100E98
:1059700082F310884EF0040E704723490860EFF35D
:10598000148222F0040282F314881E494FF00000B2
:1059900008601B494FF0010008601D481D49D0F800
:1059A000002041EA0201016018484FF08051016077
:1059B00019480068006800BF80F3088861B662B6C5
:1059C000704700BFEFF308801EF0040F01D0EFF323
:1059D000098020E9F00F40F804ED40F804ED1EF0D6
:1059E000040F02D080F3098801E080F3088800B535
:1059F00000F0BAF95DF804EB4EF0040E70470000B9
:105A0000541000204C1000205010002004ED00E045
:105A100020ED00E00000FFFF08ED00E080B489B059
:105A200000AFF860B9607A603B607B680433BB61AB
:105A3000BB6923F00703BB61BB69443BBB61BB6926
:105A40007B610023FB6108E0FB699B007A691344DA
:105A5000154A1A60FB690133FB61FB69102BF3D90E
:105A6000BA687B695A627B6900229A627B6900226C
:105A7000DA627B6900221A637B6900225A633A6802
:105A80007B699A63FA687B69DA637B694FF080729D
:105A90001A647B6900221A60BB6918462437BD4628
:105AA0005DF8047B704700BFEFBEADDE80B500AF90
:105AB0002548FDF70BFC254B1B889BB21946244853
:105AC000FDF704FC214B1B889BB203F00103002B64
:105AD00002D02048FDF7FAFB1C4B1B889BB203F059
